{
  "address": "0xE6E340D132b5f46d1e472DebcD681B2aBc16e57E",
  "abi": [
    {
      "inputs": [
        {
          "internalType": "address",
          "name": "_token",
          "type": "address"
        }
      ],
      "stateMutability": "nonpayable",
      "type": "constructor"
    },
    {
      "anonymous": false,
      "inputs": [
        {
          "indexed": false,
          "internalType": "address",
          "name": "from",
          "type": "address"
        },
        {
          "indexed": true,
          "internalType": "address",
          "name": "to",
          "type": "address"
        },
        {
          "indexed": false,
          "internalType": "uint256",
          "name": "value",
          "type": "uint256"
        }
      ],
      "name": "Deposit",
      "type": "event"
    },
    {
      "anonymous": false,
      "inputs": [
        {
          "indexed": true,
          "internalType": "address",
          "name": "from",
          "type": "address"
        },
        {
          "indexed": false,
          "internalType": "address",
          "name": "to",
          "type": "address"
        },
        {
          "indexed": false,
          "internalType": "uint256",
          "name": "value",
          "type": "uint256"
        }
      ],
      "name": "Transfer",
      "type": "event"
    },
    {
      "inputs": [
        {
          "internalType": "address",
          "name": "_owner",
          "type": "address"
        }
      ],
      "name": "balanceOf",
      "outputs": [
        {
          "internalType": "uint256",
          "name": "",
          "type": "uint256"
        }
      ],
      "stateMutability": "view",
      "type": "function"
    },
    {
      "inputs": [
        {
          "internalType": "address",
          "name": "_to",
          "type": "address"
        },
        {
          "internalType": "uint256",
          "name": "_value",
          "type": "uint256"
        }
      ],
      "name": "depositTokens",
      "outputs": [],
      "stateMutability": "nonpayable",
      "type": "function"
    },
    {
      "inputs": [],
      "name": "getToken",
      "outputs": [
        {
          "internalType": "contract IERC20",
          "name": "",
          "type": "address"
        }
      ],
      "stateMutability": "view",
      "type": "function"
    },
    {
      "inputs": [
        {
          "internalType": "address",
          "name": "_to",
          "type": "address"
        },
        {
          "internalType": "uint256",
          "name": "_value",
          "type": "uint256"
        }
      ],
      "name": "transferTokens",
      "outputs": [],
      "stateMutability": "nonpayable",
      "type": "function"
    }
  ],
  "transactionHash": "0xc21d4634243103d1e2f07d9000244ebab6b75ffa6b0728b40c5d0eb554af2a65",
  "args": [
    "0xa513E6E4b8f2a923D98304ec87F64353C4D5C853"
  ],
  "numDeployments": 1,
  "solcInputHash": "853463bf44733f3d929a32fa4eacb9e6",
  "bytecode": "0x60a060405234801561001057600080fd5b5060405161060b38038061060b83398101604081905261002f9161009a565b6001600160a01b0381166100895760405162461bcd60e51b815260206004820152601360248201527f42616e6b3a20696e76616c696420746f6b656e00000000000000000000000000604482015260640160405180910390fd5b6001600160a01b03166080526100ca565b6000602082840312156100ac57600080fd5b81516001600160a01b03811681146100c357600080fd5b9392505050565b6080516105196100f260003960008181605e01528181610196015261033901526105196000f3fe608060405234801561001057600080fd5b506004361061004c5760003560e01c806321df0da71461005157806366168bd71461008d57806370a08231146100a2578063bec3fa17146100d9575b600080fd5b6040516001600160a01b037f00000000000000000000000000000000000000000000000000000000000000001681526020015b60405180910390f35b6100a061009b36600461044f565b6100ec565b005b6100cb6100b0366004610479565b6001600160a01b031660009081526020819052604090205490565b604051908152602001610084565b6100a06100e736600461044f565b61029f565b6001600160a01b0382166101475760405162461bcd60e51b815260206004820152601760248201527f42616e6b3a20696e76616c696420726563697069656e7400000000000000000060448201526064015b60405180910390fd5b6001600160a01b0382166000908152602081905260408120805483929061016f90849061049b565b90915550506040516323b872dd60e01b8152336004820152306024820152604481018290527f00000000000000000000000000000000000000000000000000000000000000006001600160a01b0316906323b872dd906064016020604051808303816000875af11580156101e7573d6000803e3d6000fd5b505050506040513d601f19601f8201168201806040525081019061020b91906104c1565b6102575760405162461bcd60e51b815260206004820152601960248201527f42616e6b3a207472616e7366657246726f6d206661696c656400000000000000604482015260640161013e565b60408051338152602081018390526001600160a01b038416917f5548c837ab068cf56a2c2479df0882a4922fd203edb7517321831d95078c5f62910160405180910390a25050565b33600090815260208190526040902054808211156102ff5760405162461bcd60e51b815260206004820152601860248201527f42616e6b3a206e6f7420656e6f7567682062616c616e63650000000000000000604482015260640161013e565b336000908152602081905260409081902083830390555163a9059cbb60e01b81526001600160a01b038481166004830152602482018490527f0000000000000000000000000000000000000000000000000000000000000000169063a9059cbb906044016020604051808303816000875af1158015610382573d6000803e3d6000fd5b505050506040513d601f19601f820116820180604052508101906103a691906104c1565b6103ea5760405162461bcd60e51b815260206004820152601560248201527410985b9ace881d1c985b9cd9995c8819985a5b1959605a1b604482015260640161013e565b604080516001600160a01b03851681526020810184905233917fddf252ad1be2c89b69c2b068fc378daa952ba7f163c4a11628f55a4df523b3ef910160405180910390a2505050565b80356001600160a01b038116811461044a57600080fd5b919050565b6000806040838503121561046257600080fd5b61046b83610433565b946020939093013593505050565b60006020828403121561048b57600080fd5b61049482610433565b9392505050565b600082198211156104bc57634e487b7160e01b600052601160045260246000fd5b500190565b6000602082840312156104d357600080fd5b8151801515811461049457600080fdfea26469706673582212202f52a7f24915f76bd55f8533504eca6464ea1199be7010f33418e3e3cb53374564736f6c634300080d0033",
  "devdoc": {
    "kind": "dev",
    "methods": {
      "balanceOf(address)": {
        "params": {
          "_owner": "account owner"
        }
      },
      "depositTokens(address,uint256)": {
        "details": "you may need to call `token.approve(bank, _value)`",
        "params": {
          "_to": "account that will have their balance increased by `_value`",
          "_value": "amount of tokens to be transfered"
        }
      },
      "transferTokens(address,uint256)": {
        "params": {
          "_to": "account that will receive `_value` tokens",
          "_value": "amount of tokens to be transfered"
        }
      }
    },
    "version": 1
  },
  "userdoc": {
    "events": {
      "Deposit(address,address,uint256)": {
        "notice": "`value` tokens were transfered from `from` to bankthe balance of `to` was increased by `value`"
      },
      "Transfer(address,address,uint256)": {
        "notice": "`value` tokens were transfered from the bank to `to`the balance of `from` was decreased by `value`"
      }
    },
    "kind": "user",
    "methods": {
      "balanceOf(address)": {
        "notice": "get balance of `_owner`"
      },
      "depositTokens(address,uint256)": {
        "notice": "transfer `_value` tokens from caller to bankincrease the balance of `_to` by `_value`"
      },
      "getToken()": {
        "notice": "returns the token used internally"
      },
      "transferTokens(address,uint256)": {
        "notice": "transfer `_value` tokens from bank to `_to`decrease the balance of caller by `_value`"
      }
    },
    "version": 1
  },
  "storageLayout": {
    "storage": [
      {
        "astId": 3434,
        "contract": "contracts/Bank.sol:Bank",
        "label": "balances",
        "offset": 0,
        "slot": "0",
        "type": "t_mapping(t_address,t_uint256)"
      }
    ],
    "types": {
      "t_address": {
        "encoding": "inplace",
        "label": "address",
        "numberOfBytes": "20"
      },
      "t_mapping(t_address,t_uint256)": {
        "encoding": "mapping",
        "key": "t_address",
        "label": "mapping(address => uint256)",
        "numberOfBytes": "32",
        "value": "t_uint256"
      },
      "t_uint256": {
        "encoding": "inplace",
        "label": "uint256",
        "numberOfBytes": "32"
      }
    }
  }
}