{
  "address": "0xc3e53F4d16Ae77Db1c982e75a937B9f60FE63690",
  "abi": [
    {
      "inputs": [
        {
          "components": [
            {
              "internalType": "contract IDiamondCut",
              "name": "diamondCutFacet",
              "type": "address"
            },
            {
              "internalType": "contract DiamondInit",
              "name": "diamondInit",
              "type": "address"
            },
            {
              "internalType": "contract IBank",
              "name": "feeManagerBank",
              "type": "address"
            },
            {
              "components": [
                {
                  "internalType": "address",
                  "name": "facetAddress",
                  "type": "address"
                },
                {
                  "internalType": "enum IDiamondCut.FacetCutAction",
                  "name": "action",
                  "type": "uint8"
                },
                {
                  "internalType": "bytes4[]",
                  "name": "functionSelectors",
                  "type": "bytes4[]"
                }
              ],
              "internalType": "struct IDiamondCut.FacetCut[]",
              "name": "diamondCut",
              "type": "tuple[]"
            }
          ],
          "internalType": "struct CartesiDAppFactory.FactoryConfig",
          "name": "_fConfig",
          "type": "tuple"
        }
      ],
      "stateMutability": "nonpayable",
      "type": "constructor"
    },
    {
      "anonymous": false,
      "inputs": [
        {
          "indexed": true,
          "internalType": "contract CartesiDApp",
          "name": "application",
          "type": "address"
        },
        {
          "components": [
            {
              "internalType": "address",
              "name": "diamondOwner",
              "type": "address"
            },
            {
              "internalType": "bytes32",
              "name": "templateHash",
              "type": "bytes32"
            },
            {
              "internalType": "uint256",
              "name": "inputDuration",
              "type": "uint256"
            },
            {
              "internalType": "uint256",
              "name": "challengePeriod",
              "type": "uint256"
            },
            {
              "internalType": "uint256",
              "name": "inputLog2Size",
              "type": "uint256"
            },
            {
              "internalType": "uint256",
              "name": "feePerClaim",
              "type": "uint256"
            },
            {
              "internalType": "address",
              "name": "feeManagerOwner",
              "type": "address"
            },
            {
              "internalType": "address payable[]",
              "name": "validators",
              "type": "address[]"
            }
          ],
          "indexed": false,
          "internalType": "struct ICartesiDAppFactory.AppConfig",
          "name": "config",
          "type": "tuple"
        }
      ],
      "name": "ApplicationCreated",
      "type": "event"
    },
    {
      "inputs": [
        {
          "internalType": "uint256",
          "name": "",
          "type": "uint256"
        }
      ],
      "name": "diamondCut",
      "outputs": [
        {
          "internalType": "address",
          "name": "facetAddress",
          "type": "address"
        },
        {
          "internalType": "enum IDiamondCut.FacetCutAction",
          "name": "action",
          "type": "uint8"
        }
      ],
      "stateMutability": "view",
      "type": "function"
    },
    {
      "inputs": [],
      "name": "diamondCutFacet",
      "outputs": [
        {
          "internalType": "contract IDiamondCut",
          "name": "",
          "type": "address"
        }
      ],
      "stateMutability": "view",
      "type": "function"
    },
    {
      "inputs": [],
      "name": "diamondInit",
      "outputs": [
        {
          "internalType": "contract DiamondInit",
          "name": "",
          "type": "address"
        }
      ],
      "stateMutability": "view",
      "type": "function"
    },
    {
      "inputs": [],
      "name": "feeManagerBank",
      "outputs": [
        {
          "internalType": "contract IBank",
          "name": "",
          "type": "address"
        }
      ],
      "stateMutability": "view",
      "type": "function"
    },
    {
      "inputs": [
        {
          "components": [
            {
              "internalType": "address",
              "name": "diamondOwner",
              "type": "address"
            },
            {
              "internalType": "bytes32",
              "name": "templateHash",
              "type": "bytes32"
            },
            {
              "internalType": "uint256",
              "name": "inputDuration",
              "type": "uint256"
            },
            {
              "internalType": "uint256",
              "name": "challengePeriod",
              "type": "uint256"
            },
            {
              "internalType": "uint256",
              "name": "inputLog2Size",
              "type": "uint256"
            },
            {
              "internalType": "uint256",
              "name": "feePerClaim",
              "type": "uint256"
            },
            {
              "internalType": "address",
              "name": "feeManagerOwner",
              "type": "address"
            },
            {
              "internalType": "address payable[]",
              "name": "validators",
              "type": "address[]"
            }
          ],
          "internalType": "struct ICartesiDAppFactory.AppConfig",
          "name": "_appConfig",
          "type": "tuple"
        }
      ],
      "name": "newApplication",
      "outputs": [
        {
          "internalType": "contract CartesiDApp",
          "name": "",
          "type": "address"
        }
      ],
      "stateMutability": "nonpayable",
      "type": "function"
    }
  ],
  "transactionHash": "0x4d734e09fce02f10d7448da1d1c8e1f314baa9ab05cb559c3ce8dc9b5b06c075",
  "args": [
    {
      "diamondCutFacet": "0xB7f8BC63BbcaD18155201308C8f3540b07f84F5e",
      "diamondInit": "0x67d269191c92Caf3cD7723F116c85e6E9bf55933",
      "feeManagerBank": "0xE6E340D132b5f46d1e472DebcD681B2aBc16e57E",
      "diamondCut": [
        {
          "facetAddress": "0xA51c1fc2f0D1a1b8494Ed1FE312d7C3a78Ed91C0",
          "action": 0,
          "functionSelectors": [
            "0xcdffacc6",
            "0x52ef6b2c",
            "0xadfca15e",
            "0x7a0ed627",
            "0x01ffc9a7"
          ]
        },
        {
          "facetAddress": "0x0DCd1Bf9A1b36cE34237eEaFef220932846BCD82",
          "action": 0,
          "functionSelectors": [
            "0x8da5cb5b",
            "0xf2fde38b"
          ]
        },
        {
          "facetAddress": "0x59b670e9fA9D0A427751Af201D676719a970857b",
          "action": 0,
          "functionSelectors": [
            "0xcb1061a6"
          ]
        },
        {
          "facetAddress": "0x4ed7c70F96B99c776995fB64377f0d4aB3B0e1C1",
          "action": 0,
          "functionSelectors": [
            "0x15e55ce5",
            "0x150b7a02"
          ]
        },
        {
          "facetAddress": "0x322813Fd9A801c5507c9de605d63CEA4f2CE6c44",
          "action": 0,
          "functionSelectors": [
            "0x2abfe7b3",
            "0x74956b94"
          ]
        },
        {
          "facetAddress": "0xa85233C63b9Ee964Add6F2cffe00Fd84eb32338f",
          "action": 0,
          "functionSelectors": [
            "0x6e964cea",
            "0xa859b983",
            "0xe8f56171",
            "0xde7a8d11",
            "0x7a5bf67c"
          ]
        },
        {
          "facetAddress": "0x4A679253410272dd5232B3Ff7cF5dbB88f295319",
          "action": 0,
          "functionSelectors": [
            "0xf32078e8",
            "0x1ab6dcab",
            "0xa459600e",
            "0xe7955244"
          ]
        },
        {
          "facetAddress": "0x7a2088a1bFc9d81c55368AE168C2C02570cB814F",
          "action": 0,
          "functionSelectors": [
            "0x6190d81e",
            "0x3c0d9958",
            "0xa2382036",
            "0xf3af7efd",
            "0x10517cfc",
            "0x8021be81",
            "0x83552b4d",
            "0xa981588a",
            "0x3ad58a27",
            "0x5e439a0c"
          ]
        },
        {
          "facetAddress": "0x09635F643e140090A9A8Dcd712eD6285858ceBef",
          "action": 0,
          "functionSelectors": [
            "0xbd66528a",
            "0x82ae9ef7",
            "0x7864b77d",
            "0xb97dd9e2",
            "0xa3a40ea5",
            "0xddf7bcf0",
            "0xe17ba012",
            "0x54ee1da5",
            "0x61b12c66"
          ]
        },
        {
          "facetAddress": "0xc5a5C42992dECbae36851359345FE25997F5C42d",
          "action": 0,
          "functionSelectors": [
            "0x101494ce",
            "0xf6023815",
            "0x8219fda4",
            "0xd2992f54",
            "0x55564a70",
            "0xcc8a2451",
            "0x1fcc449e"
          ]
        }
      ]
    }
  ],
  "numDeployments": 1,
  "solcInputHash": "853463bf44733f3d929a32fa4eacb9e6",
  "bytecode": "0x60e06040523480156200001157600080fd5b5060405162003159380380620031598339810160408190526200003491620002d9565b80516001600160a01b039081166080526020820151811660a05260408201511660c05260005b8160600151518110156200012f57600082606001518281518110620000835762000083620004e0565b60209081029190910181015182546001810184556000938452928290208151600294850290910180546001600160a01b039092166001600160a01b0319831681178255938301519294909384926001600160a81b0319161790600160a01b908490811115620000f657620000f6620004f6565b0217905550604082015180516200011891600184019160209091019062000137565b5050508062000127906200050c565b90506200005a565b505062000534565b82805482825590600052602060002090600701600890048101928215620001d85791602002820160005b83821115620001a457835183826101000a81548163ffffffff021916908360e01c0217905550926020019260040160208160030104928301926001030262000161565b8015620001d65782816101000a81549063ffffffff0219169055600401602081600301049283019260010302620001a4565b505b50620001e6929150620001ea565b5090565b5b80821115620001e65760008155600101620001eb565b634e487b7160e01b600052604160045260246000fd5b604051608081016001600160401b03811182821017156200023c576200023c62000201565b60405290565b604051606081016001600160401b03811182821017156200023c576200023c62000201565b604051601f8201601f191681016001600160401b038111828210171562000292576200029262000201565b604052919050565b6001600160a01b0381168114620002b057600080fd5b50565b60006001600160401b03821115620002cf57620002cf62000201565b5060051b60200190565b60006020808385031215620002ed57600080fd5b82516001600160401b03808211156200030557600080fd5b90840190608082870312156200031a57600080fd5b6200032462000217565b825162000331816200029a565b81528284015162000342816200029a565b81850152604083015162000356816200029a565b60408201526060830151828111156200036e57600080fd5b80840193505086601f8401126200038457600080fd5b82516200039b6200039582620002b3565b62000267565b81815260059190911b84018501908581019089831115620003bb57600080fd5b8686015b83811015620004cd57805186811115620003d857600080fd5b87016060818d03601f19011215620003ef57600080fd5b620003f962000242565b8982015162000408816200029a565b81526040820151600381106200041d57600080fd5b818b01526060820151888111156200043457600080fd5b8083019250508c603f8301126200044a57600080fd5b898201516200045d6200039582620002b3565b81815260059190911b8301604001908b8101908f8311156200047e57600080fd5b6040850194505b82851015620004b75784516001600160e01b031981168114620004a757600080fd5b8252938c0193908c019062000485565b60408401525050845250918701918701620003bf565b5060608401525090979650505050505050565b634e487b7160e01b600052603260045260246000fd5b634e487b7160e01b600052602160045260246000fd5b6000600182016200052d57634e487b7160e01b600052601160045260246000fd5b5060010190565b60805160a05160c051612be2620005776000396000818160f1015261022201526000818161011901526102ce01526000818160c9015261017c0152612be26000f3fe60806040523480156200001157600080fd5b50600436106200005e5760003560e01c806304c01cc7146200006357806394a28f321462000093578063a051e9b314620000c3578063aa9a6e9114620000eb578063e6ee1d4f1462000113575b600080fd5b6200007a6200007436600462000456565b6200013b565b6040516200008a92919062000493565b60405180910390f35b620000aa620000a4366004620004b9565b62000176565b6040516001600160a01b0390911681526020016200008a565b620000aa7f000000000000000000000000000000000000000000000000000000000000000081565b620000aa7f000000000000000000000000000000000000000000000000000000000000000081565b620000aa7f000000000000000000000000000000000000000000000000000000000000000081565b600081815481106200014c57600080fd5b60009182526020909120600290910201546001600160a01b0381169150600160a01b900460ff1682565b600080307f0000000000000000000000000000000000000000000000000000000000000000604051620001a99062000448565b6001600160a01b03928316815291166020820152604001604051809103906000f080158015620001dd573d6000803e3d6000fd5b5090506000604051806101000160405280856020013581526020018560400135815260200185606001358152602001856080013581526020018560a0013581526020017f00000000000000000000000000000000000000000000000000000000000000006001600160a01b031681526020018560c001602081019062000264919062000523565b6001600160a01b031681526020016200028160e087018762000543565b8080602002602001604051908101604052809392919081815260200183836020028082843760009201829052509390945250506040519293506001600160a01b03851692631f931c1c92507f00000000000000000000000000000000000000000000000000000000000000009063af52770160e01b9062000307908790602401620005dd565b60408051601f198184030181529181526020820180516001600160e01b03166001600160e01b03199485161790525160e086901b909216825262000350939291600401620006b8565b600060405180830381600087803b1580156200036b57600080fd5b505af115801562000380573d6000803e3d6000fd5b5050506001600160a01b038316905063f2fde38b620003a3602087018762000523565b6040516001600160e01b031960e084901b1681526001600160a01b039091166004820152602401600060405180830381600087803b158015620003e557600080fd5b505af1158015620003fa573d6000803e3d6000fd5b50505050816001600160a01b03167f43883daeb0f23afe0fbb9658d1d4c08379520e9654a30f7ea3a9fb3a8f5195bb8560405162000439919062000a2b565b60405180910390a25092915050565b6120df8062000ace83390190565b6000602082840312156200046957600080fd5b5035919050565b600381106200048f57634e487b7160e01b600052602160045260246000fd5b9052565b6001600160a01b038316815260408101620004b2602083018462000470565b9392505050565b600060208284031215620004cc57600080fd5b813567ffffffffffffffff811115620004e457600080fd5b82016101008185031215620004b257600080fd5b6001600160a01b03811681146200050e57600080fd5b50565b80356200051e81620004f8565b919050565b6000602082840312156200053657600080fd5b8135620004b281620004f8565b6000808335601e198436030181126200055b57600080fd5b83018035915067ffffffffffffffff8211156200057757600080fd5b6020019150600581901b36038213156200059057600080fd5b9250929050565b600081518084526020808501945080840160005b83811015620005d25781516001600160a01b031687529582019590820190600101620005ab565b509495945050505050565b6020815281516020820152602082015160408201526040820151606082015260608201516080820152608082015160a0820152600060a083015160018060a01b0380821660c08501528060c08601511660e0850152505060e08301516101008081850152506200065261012084018262000597565b949350505050565b6001600160e01b0319169052565b6000815180845260005b81811015620006905760208185018101518683018201520162000672565b81811115620006a3576000602083870101525b50601f01601f19169290920160200192915050565b60608152600060608201855480825260808401915060808160051b8501018760005260208060002060005b848110156200096d57878403607f1901865281546001600160a01b038116855260608501906200071d85870160a083901c60ff1662000470565b506060604086015260018381018054808452600091825260208083209401905b80600784011015620008055784546200075a838260e01b6200065a565b6001600160e01b031962000777848b0160c084901b83166200065a565b6200078b60408501828460a01b166200065a565b6200079f60608501828460801b166200065a565b620007b360808501828460601b166200065a565b620007c760a08501828460401b166200065a565b620007da60c0850182848d1b166200065a565b620007eb60e085018284166200065a565b50506101008201915083850194506008830192506200073d565b93549380831015620008295762000820828660e01b6200065a565b91830191908701905b8083101562000855576200084c8260c087901b6001600160e01b0319166200065a565b91830191908701905b808310156200088157620008788260a087901b6001600160e01b0319166200065a565b91830191908701905b80831015620008ad57620008a482608087901b6001600160e01b0319166200065a565b91830191908701905b80831015620008d957620008d082606087901b6001600160e01b0319166200065a565b91830191908701905b808310156200090557620008fc82604087901b6001600160e01b0319166200065a565b91830191908701905b808310156200092f576200092682868a1b6001600160e01b0319166200065a565b91830191908701905b8083101562000953576200094e826001600160e01b031987166200065a565b908701905b5098860198965050506002929092019150600101620006e3565b50506001600160a01b03881690860152848103604086015262000991818762000668565b98975050505050505050565b6000808335601e19843603018112620009b557600080fd5b830160208101925035905067ffffffffffffffff811115620009d657600080fd5b8060051b36038313156200059057600080fd5b8183526000602080850194508260005b85811015620005d257813562000a0f81620004f8565b6001600160a01b031687529582019590820190600101620009f9565b602081526000823562000a3e81620004f8565b60018060a01b038116602084015250602083013560408301526040830135606083015260608301356080830152608083013560a083015260a083013560c083015262000a8d60c0840162000511565b6001600160a01b03811660e08401525062000aac60e08401846200099d565b6101008481015262000ac461012085018284620009e9565b9594505050505056fe6080604052604051620020df380380620020df833981016040819052620000269162000ddc565b6200003c826200015660201b620000b01760201c565b604080516001808252818301909252600091816020015b60408051606080820183526000808352602083015291810191909152815260200190600190039081620000535750506040805160018082528183019092529192506000919060208083019080368337019050509050631f931c1c60e01b81600081518110620000c657620000c662000e14565b6001600160e01b031990921660209283029190910182015260408051606081019091526001600160a01b038516815290810160008152602001828152508260008151811062000119576200011962000e14565b60200260200101819052506200014c82600060405180602001604052806000815250620001da60201b620001331760201c565b5050505062001067565b7fc8fcad8db84d3cc18b4c41d551ea0ee66dd599cde068d998e57d5e09332c132080546001600160a01b031981166001600160a01b038481169182179093556040516000805160206200204b833981519152939092169182907f8be0079c531659141344cd1fd0a4f28419497f9722a3daafe3b4186f6b6457e090600090a3505050565b7fc8fcad8db84d3cc18b4c41d551ea0ee66dd599cde068d998e57d5e09332c131e546000805160206200204b8339815191529061ffff811690819060009060071615620002395750600381901c60009081526001840160205260409020545b60005b8751811015620002d557620002bb83838a848151811062000261576200026162000e14565b6020026020010151600001518b858151811062000282576200028262000e14565b6020026020010151602001518c8681518110620002a357620002a362000e14565b6020026020010151604001516200036760201b60201c565b909350915080620002cc8162000e56565b9150506200023c565b50828214620002f25760028401805461ffff191661ffff84161790555b60078216156200031557600382901c600090815260018501602052604090208190555b7f8faa70878671ccd212d20771b795c50af8fd3ff6cf27f4bde57e5d4de0aeb6738787876040516200034a9392919062000ecf565b60405180910390a16200035e868662000b76565b50505050505050565b600080806000805160206200204b83398151915290506000845111620003e85760405162461bcd60e51b815260206004820152602b60248201527f4c69624469616d6f6e644375743a204e6f2073656c6563746f727320696e206660448201526a1858d95d081d1bc818dd5d60aa1b60648201526084015b60405180910390fd5b6000856002811115620003ff57620003ff62000e2a565b0362000585576200042a866040518060600160405280602481526020016200206b6024913962000d9b565b60005b84518110156200057e5760008582815181106200044e576200044e62000e14565b6020908102919091018101516001600160e01b03198116600090815291859052604090912054909150606081901c15620004f15760405162461bcd60e51b815260206004820152603560248201527f4c69624469616d6f6e644375743a2043616e2774206164642066756e6374696f60448201527f6e207468617420616c72656164792065786973747300000000000000000000006064820152608401620003df565b6001600160e01b031980831660008181526020879052604090206001600160601b031960608d901b168e17905560e060058e901b811692831c199c909c1690821c179a819003620005565760038c901c600090815260018601602052604081209b909b555b8b620005628162000e56565b9c50505050508080620005759062000e56565b9150506200042d565b5062000b6a565b60018560028111156200059c576200059c62000e2a565b03620007b557620005c786604051806060016040528060288152602001620020b76028913962000d9b565b60005b84518110156200057e576000858281518110620005eb57620005eb62000e14565b6020908102919091018101516001600160e01b03198116600090815291859052604090912054909150606081901c308103620006825760405162461bcd60e51b815260206004820152602f60248201527f4c69624469616d6f6e644375743a2043616e2774207265706c61636520696d6d60448201526e3aba30b1363290333ab731ba34b7b760891b6064820152608401620003df565b896001600160a01b0316816001600160a01b031603620006fa5760405162461bcd60e51b815260206004820152603860248201526000805160206200202b83398151915260448201527f6374696f6e20776974682073616d652066756e6374696f6e00000000000000006064820152608401620003df565b6001600160a01b038116620007675760405162461bcd60e51b815260206004820152603860248201526000805160206200202b83398151915260448201527f6374696f6e207468617420646f65736e277420657869737400000000000000006064820152608401620003df565b506001600160e01b031990911660009081526020849052604090206001600160601b03919091166001600160601b031960608a901b1617905580620007ac8162000e56565b915050620005ca565b6002856002811115620007cc57620007cc62000e2a565b0362000b11576001600160a01b03861615620008515760405162461bcd60e51b815260206004820152603660248201527f4c69624469616d6f6e644375743a2052656d6f7665206661636574206164647260448201527f657373206d7573742062652061646472657373283029000000000000000000006064820152608401620003df565b600388901c6007891660005b865181101562000aec5760008a90036200089e57826200087d8162000fd6565b60008181526001870160205260409020549b50935060079250620008ae9050565b81620008aa8162000fd6565b9250505b6000806000808a8581518110620008c957620008c962000e14565b6020908102919091018101516001600160e01b031981166000908152918a9052604090912054909150606081901c6200096b5760405162461bcd60e51b815260206004820152603760248201527f4c69624469616d6f6e644375743a2043616e27742072656d6f76652066756e6360448201527f74696f6e207468617420646f65736e27742065786973740000000000000000006064820152608401620003df565b30606082901c03620009d75760405162461bcd60e51b815260206004820152602e60248201527f4c69624469616d6f6e644375743a2043616e27742072656d6f766520696d6d7560448201526d3a30b1363290333ab731ba34b7b760911b6064820152608401620003df565b600587901b8f901b94506001600160e01b03198086169083161462000a29576001600160e01b03198516600090815260208a90526040902080546001600160601b0319166001600160601b0383161790555b6001600160e01b031991909116600090815260208990526040812055600381901c611fff16925060051b60e016905085821462000a90576000828152600188016020526040902080546001600160e01b031980841c19909116908516831c17905562000ab4565b80836001600160e01b031916901c816001600160e01b031960001b901c198e16179c505b8460000362000ad357600086815260018801602052604081208190559c505b505050808062000ae39062000e56565b9150506200085d565b508062000afb83600862000ff0565b62000b07919062001012565b9950505062000b6a565b60405162461bcd60e51b815260206004820152602760248201527f4c69624469616d6f6e644375743a20496e636f727265637420466163657443756044820152663a20b1ba34b7b760c91b6064820152608401620003df565b50959694955050505050565b6001600160a01b03821662000c005780511562000bfc5760405162461bcd60e51b815260206004820152603c60248201527f4c69624469616d6f6e644375743a205f696e697420697320616464726573732860448201527f3029206275745f63616c6c64617461206973206e6f7420656d707479000000006064820152608401620003df565b5050565b600081511162000c795760405162461bcd60e51b815260206004820152603d60248201527f4c69624469616d6f6e644375743a205f63616c6c6461746120697320656d707460448201527f7920627574205f696e6974206973206e6f7420616464726573732830290000006064820152608401620003df565b6001600160a01b038216301462000caf5762000caf826040518060600160405280602881526020016200208f6028913962000d9b565b600080836001600160a01b03168360405162000ccc91906200102d565b600060405180830381855af49150503d806000811462000d09576040519150601f19603f3d011682016040523d82523d6000602084013e62000d0e565b606091505b50915091508162000d955780511562000d3d578060405162461bcd60e51b8152600401620003df91906200104b565b60405162461bcd60e51b815260206004820152602660248201527f4c69624469616d6f6e644375743a205f696e69742066756e6374696f6e2072656044820152651d995c9d195960d21b6064820152608401620003df565b50505050565b813b818162000d955760405162461bcd60e51b8152600401620003df91906200104b565b80516001600160a01b038116811462000dd757600080fd5b919050565b6000806040838503121562000df057600080fd5b62000dfb8362000dbf565b915062000e0b6020840162000dbf565b90509250929050565b634e487b7160e01b600052603260045260246000fd5b634e487b7160e01b600052602160045260246000fd5b634e487b7160e01b600052601160045260246000fd5b60006001820162000e6b5762000e6b62000e40565b5060010190565b60005b8381101562000e8f57818101518382015260200162000e75565b8381111562000d955750506000910152565b6000815180845262000ebb81602086016020860162000e72565b601f01601f19169290920160200192915050565b60006060808301818452808751808352608092508286019150828160051b8701016020808b0160005b8481101562000fa457898403607f19018652815180516001600160a01b0316855283810151898601906003811062000f4057634e487b7160e01b600052602160045260246000fd5b868601526040918201519186018a905281519081905290840190600090898701905b8083101562000f8e5783516001600160e01b031916825292860192600192909201919086019062000f62565b5097850197955050509082019060010162000ef8565b50506001600160a01b038a1690880152868103604088015262000fc8818962000ea1565b9a9950505050505050505050565b60008162000fe85762000fe862000e40565b506000190190565b60008160001904831182151516156200100d576200100d62000e40565b500290565b6000821982111562001028576200102862000e40565b500190565b600082516200104181846020870162000e72565b9190910192915050565b60208152600062001060602083018462000ea1565b9392505050565b610fb480620010776000396000f3fe60806040523661000b57005b600080356001600160e01b0319168152600080516020610eeb8339815191526020819052604090912054819060601c8061008c5760405162461bcd60e51b815260206004820181905260248201527f4469616d6f6e643a2046756e6374696f6e20646f6573206e6f7420657869737460448201526064015b60405180910390fd5b3660008037600080366000845af43d6000803e8080156100ab573d6000f35b3d6000fd5b7fc8fcad8db84d3cc18b4c41d551ea0ee66dd599cde068d998e57d5e09332c132080546001600160a01b031981166001600160a01b03848116918217909355604051600080516020610eeb833981519152939092169182907f8be0079c531659141344cd1fd0a4f28419497f9722a3daafe3b4186f6b6457e090600090a3505050565b7fc8fcad8db84d3cc18b4c41d551ea0ee66dd599cde068d998e57d5e09332c131e54600080516020610eeb8339815191529061ffff8116908190600090600716156101905750600381901c60009081526001840160205260409020545b60005b87518110156102175761020083838a84815181106101b3576101b3610cb3565b6020026020010151600001518b85815181106101d1576101d1610cb3565b6020026020010151602001518c86815181106101ef576101ef610cb3565b6020026020010151604001516102a3565b90935091508061020f81610cdf565b915050610193565b508282146102335760028401805461ffff191661ffff84161790555b600782161561025557600382901c600090815260018501602052604090208190555b7f8faa70878671ccd212d20771b795c50af8fd3ff6cf27f4bde57e5d4de0aeb67387878760405161028893929190610d66565b60405180910390a161029a8686610a7f565b50505050505050565b60008080600080516020610eeb8339815191529050600084511161031d5760405162461bcd60e51b815260206004820152602b60248201527f4c69624469616d6f6e644375743a204e6f2073656c6563746f727320696e206660448201526a1858d95d081d1bc818dd5d60aa1b6064820152608401610083565b600085600281111561033157610331610cf8565b0361049e5761035886604051806060016040528060248152602001610f0b60249139610c92565b60005b845181101561049857600085828151811061037857610378610cb3565b6020908102919091018101516001600160e01b03198116600090815291859052604090912054909150606081901c156104115760405162461bcd60e51b815260206004820152603560248201527f4c69624469616d6f6e644375743a2043616e2774206164642066756e6374696f6044820152746e207468617420616c72656164792065786973747360581b6064820152608401610083565b6001600160e01b031980831660008181526020879052604090206001600160601b031960608d901b168e17905560e060058e901b811692831c199c909c1690821c179a8190036104755760038c901c600090815260018601602052604081209b909b555b8b61047f81610cdf565b9c5050505050808061049090610cdf565b91505061035b565b50610a73565b60018560028111156104b2576104b2610cf8565b036106e1576104d986604051806060016040528060288152602001610f5760289139610c92565b60005b84518110156104985760008582815181106104f9576104f9610cb3565b6020908102919091018101516001600160e01b03198116600090815291859052604090912054909150606081901c30810361058e5760405162461bcd60e51b815260206004820152602f60248201527f4c69624469616d6f6e644375743a2043616e2774207265706c61636520696d6d60448201526e3aba30b1363290333ab731ba34b7b760891b6064820152608401610083565b896001600160a01b0316816001600160a01b0316036106155760405162461bcd60e51b815260206004820152603860248201527f4c69624469616d6f6e644375743a2043616e2774207265706c6163652066756e60448201527f6374696f6e20776974682073616d652066756e6374696f6e00000000000000006064820152608401610083565b6001600160a01b0381166106915760405162461bcd60e51b815260206004820152603860248201527f4c69624469616d6f6e644375743a2043616e2774207265706c6163652066756e60448201527f6374696f6e207468617420646f65736e277420657869737400000000000000006064820152608401610083565b506001600160e01b031990911660009081526020849052604090206bffffffffffffffffffffffff919091166001600160601b031960608a901b16179055806106d981610cdf565b9150506104dc565b60028560028111156106f5576106f5610cf8565b03610a1b576001600160a01b038616156107705760405162461bcd60e51b815260206004820152603660248201527f4c69624469616d6f6e644375743a2052656d6f76652066616365742061646472604482015275657373206d757374206265206164647265737328302960501b6064820152608401610083565b600388901c6007891660005b86518110156109fb5760008a90036107b8578261079881610e66565b60008181526001870160205260409020549b509350600792506107c69050565b816107c281610e66565b9250505b6000806000808a85815181106107de576107de610cb3565b6020908102919091018101516001600160e01b031981166000908152918a9052604090912054909150606081901c61087e5760405162461bcd60e51b815260206004820152603760248201527f4c69624469616d6f6e644375743a2043616e27742072656d6f76652066756e6360448201527f74696f6e207468617420646f65736e27742065786973740000000000000000006064820152608401610083565b30606082901c036108e85760405162461bcd60e51b815260206004820152602e60248201527f4c69624469616d6f6e644375743a2043616e27742072656d6f766520696d6d7560448201526d3a30b1363290333ab731ba34b7b760911b6064820152608401610083565b600587901b8f901b94506001600160e01b03198086169083161461093e576001600160e01b03198516600090815260208a90526040902080546001600160601b0319166bffffffffffffffffffffffff83161790555b6001600160e01b031991909116600090815260208990526040812055600381901c611fff16925060051b60e01690508582146109a3576000828152600188016020526040902080546001600160e01b031980841c19909116908516831c1790556109c7565b80836001600160e01b031916901c816001600160e01b031960001b901c198e16179c505b846000036109e557600086815260018801602052604081208190559c505b50505080806109f390610cdf565b91505061077c565b5080610a08836008610e7d565b610a129190610e9c565b99505050610a73565b60405162461bcd60e51b815260206004820152602760248201527f4c69624469616d6f6e644375743a20496e636f727265637420466163657443756044820152663a20b1ba34b7b760c91b6064820152608401610083565b50959694955050505050565b6001600160a01b038216610b0657805115610b025760405162461bcd60e51b815260206004820152603c60248201527f4c69624469616d6f6e644375743a205f696e697420697320616464726573732860448201527f3029206275745f63616c6c64617461206973206e6f7420656d707479000000006064820152608401610083565b5050565b6000815111610b7d5760405162461bcd60e51b815260206004820152603d60248201527f4c69624469616d6f6e644375743a205f63616c6c6461746120697320656d707460448201527f7920627574205f696e6974206973206e6f7420616464726573732830290000006064820152608401610083565b6001600160a01b0382163014610baf57610baf82604051806060016040528060288152602001610f2f60289139610c92565b600080836001600160a01b031683604051610bca9190610eb4565b600060405180830381855af49150503d8060008114610c05576040519150601f19603f3d011682016040523d82523d6000602084013e610c0a565b606091505b509150915081610c8c57805115610c35578060405162461bcd60e51b81526004016100839190610ed0565b60405162461bcd60e51b815260206004820152602660248201527f4c69624469616d6f6e644375743a205f696e69742066756e6374696f6e2072656044820152651d995c9d195960d21b6064820152608401610083565b50505050565b813b8181610c8c5760405162461bcd60e51b81526004016100839190610ed0565b634e487b7160e01b600052603260045260246000fd5b634e487b7160e01b600052601160045260246000fd5b600060018201610cf157610cf1610cc9565b5060010190565b634e487b7160e01b600052602160045260246000fd5b60005b83811015610d29578181015183820152602001610d11565b83811115610c8c5750506000910152565b60008151808452610d52816020860160208601610d0e565b601f01601f19169290920160200192915050565b60006060808301818452808751808352608092508286019150828160051b8701016020808b0160005b84811015610e3657898403607f19018652815180516001600160a01b03168552838101518986019060038110610dd557634e487b7160e01b600052602160045260246000fd5b868601526040918201519186018a905281519081905290840190600090898701905b80831015610e215783516001600160e01b0319168252928601926001929092019190860190610df7565b50978501979550505090820190600101610d8f565b50506001600160a01b038a16908801528681036040880152610e588189610d3a565b9a9950505050505050505050565b600081610e7557610e75610cc9565b506000190190565b6000816000190483118215151615610e9757610e97610cc9565b500290565b60008219821115610eaf57610eaf610cc9565b500190565b60008251610ec6818460208701610d0e565b9190910192915050565b602081526000610ee36020830184610d3a565b939250505056fec8fcad8db84d3cc18b4c41d551ea0ee66dd599cde068d998e57d5e09332c131c4c69624469616d6f6e644375743a2041646420666163657420686173206e6f20636f64654c69624469616d6f6e644375743a205f696e6974206164647265737320686173206e6f20636f64654c69624469616d6f6e644375743a205265706c61636520666163657420686173206e6f20636f6465a26469706673582212204e6b6e58423be59a39c21641051d6bd7ed7f64b27b6fdcbcf32291c98ddd811464736f6c634300080d00334c69624469616d6f6e644375743a2043616e2774207265706c6163652066756ec8fcad8db84d3cc18b4c41d551ea0ee66dd599cde068d998e57d5e09332c131c4c69624469616d6f6e644375743a2041646420666163657420686173206e6f20636f64654c69624469616d6f6e644375743a205f696e6974206164647265737320686173206e6f20636f64654c69624469616d6f6e644375743a205265706c61636520666163657420686173206e6f20636f6465a26469706673582212201c0e6f375f8505b9e5db7032e1ce2d96f6ef6969666f191881207364ed6a5e7e64736f6c634300080d0033",
  "devdoc": {
    "kind": "dev",
    "methods": {
      "newApplication((address,bytes32,uint256,uint256,uint256,uint256,address,address[]))": {
        "params": {
          "_appConfig": "application configurations"
        },
        "returns": {
          "_0": "application address"
        }
      }
    },
    "version": 1
  },
  "userdoc": {
    "events": {
      "ApplicationCreated(address,(address,bytes32,uint256,uint256,uint256,uint256,address,address[]))": {
        "notice": "Event emitted when a new application is deployed"
      }
    },
    "kind": "user",
    "methods": {
      "newApplication((address,bytes32,uint256,uint256,uint256,uint256,address,address[]))": {
        "notice": "Deploy a new application"
      }
    },
    "version": 1
  },
  "storageLayout": {
    "storage": [
      {
        "astId": 3727,
        "contract": "contracts/CartesiDAppFactory.sol:CartesiDAppFactory",
        "label": "diamondCut",
        "offset": 0,
        "slot": "0",
        "type": "t_array(t_struct(FacetCut)6808_storage)dyn_storage"
      }
    ],
    "types": {
      "t_address": {
        "encoding": "inplace",
        "label": "address",
        "numberOfBytes": "20"
      },
      "t_array(t_bytes4)dyn_storage": {
        "base": "t_bytes4",
        "encoding": "dynamic_array",
        "label": "bytes4[]",
        "numberOfBytes": "32"
      },
      "t_array(t_struct(FacetCut)6808_storage)dyn_storage": {
        "base": "t_struct(FacetCut)6808_storage",
        "encoding": "dynamic_array",
        "label": "struct IDiamondCut.FacetCut[]",
        "numberOfBytes": "32"
      },
      "t_bytes4": {
        "encoding": "inplace",
        "label": "bytes4",
        "numberOfBytes": "4"
      },
      "t_enum(FacetCutAction)6799": {
        "encoding": "inplace",
        "label": "enum IDiamondCut.FacetCutAction",
        "numberOfBytes": "1"
      },
      "t_struct(FacetCut)6808_storage": {
        "encoding": "inplace",
        "label": "struct IDiamondCut.FacetCut",
        "members": [
          {
            "astId": 6801,
            "contract": "contracts/CartesiDAppFactory.sol:CartesiDAppFactory",
            "label": "facetAddress",
            "offset": 0,
            "slot": "0",
            "type": "t_address"
          },
          {
            "astId": 6804,
            "contract": "contracts/CartesiDAppFactory.sol:CartesiDAppFactory",
            "label": "action",
            "offset": 20,
            "slot": "0",
            "type": "t_enum(FacetCutAction)6799"
          },
          {
            "astId": 6807,
            "contract": "contracts/CartesiDAppFactory.sol:CartesiDAppFactory",
            "label": "functionSelectors",
            "offset": 0,
            "slot": "1",
            "type": "t_array(t_bytes4)dyn_storage"
          }
        ],
        "numberOfBytes": "64"
      }
    }
  }
}