{
  "address": "0x67d269191c92Caf3cD7723F116c85e6E9bf55933",
  "abi": [
    {
      "anonymous": false,
      "inputs": [
        {
          "indexed": false,
          "internalType": "uint256",
          "name": "feePerClaim",
          "type": "uint256"
        },
        {
          "indexed": false,
          "internalType": "address",
          "name": "feeManagerBank",
          "type": "address"
        },
        {
          "indexed": false,
          "internalType": "address",
          "name": "feeManagerOwner",
          "type": "address"
        }
      ],
      "name": "FeeManagerInitialized",
      "type": "event"
    },
    {
      "anonymous": false,
      "inputs": [
        {
          "indexed": false,
          "internalType": "uint256",
          "name": "inputDuration",
          "type": "uint256"
        },
        {
          "indexed": false,
          "internalType": "uint256",
          "name": "challengePeriod",
          "type": "uint256"
        }
      ],
      "name": "RollupsInitialized",
      "type": "event"
    },
    {
      "inputs": [
        {
          "components": [
            {
              "internalType": "bytes32",
              "name": "templateHash",
              "type": "bytes32"
            },
            {
              "internalType": "uint256",
              "name": "inputDuration",
              "type": "uint256"
            },
            {
              "internalType": "uint256",
              "name": "challengePeriod",
              "type": "uint256"
            },
            {
              "internalType": "uint256",
              "name": "inputLog2Size",
              "type": "uint256"
            },
            {
              "internalType": "uint256",
              "name": "feePerClaim",
              "type": "uint256"
            },
            {
              "internalType": "address",
              "name": "feeManagerBank",
              "type": "address"
            },
            {
              "internalType": "address",
              "name": "feeManagerOwner",
              "type": "address"
            },
            {
              "internalType": "address payable[]",
              "name": "validators",
              "type": "address[]"
            }
          ],
          "internalType": "struct DiamondConfig",
          "name": "_dConfig",
          "type": "tuple"
        }
      ],
      "name": "init",
      "outputs": [],
      "stateMutability": "nonpayable",
      "type": "function"
    }
  ],
  "transactionHash": "0x0043e0f7ea63d055c67e444b35395305aeedcdb5eef5f28f22825ddb11581b93",
  "args": [],
  "numDeployments": 1,
  "solcInputHash": "853463bf44733f3d929a32fa4eacb9e6",
  "bytecode": "0x608060405234801561001057600080fd5b50610ab1806100206000396000f3fe608060405234801561001057600080fd5b506004361061002b5760003560e01c8063af52770114610030575b600080fd5b61004361003e3660046108d6565b610045565b005b6101267fc8fcad8db84d3cc18b4c41d551ea0ee66dd599cde068d998e57d5e09332c131f6020527f699d9daa71b280d05a152715774afa0a81a312594b2d731d6b0b2552b7d6f69f8054600160ff1991821681179092557ff97e938d8af42f52387bb74b8b526fda8f184cc2aa534340a8d75a88fbecc77580548216831790557f65d510a5d8f7ef134ec444f7f34ee808c8eeb5177cdfd16be0c40fe1ab43369580548216831790556307f5828d60e41b6000527f5622121b47b8cd0120c4efe45dd5483242f54a3d49bd7679be565d47694918c380549091169091179055565b61016d61013660e0830183610912565b808060200260200160405190810160405280939291908181526020018383602002808284376000920191909152506101be92505050565b610181813560208301356040840135610260565b6101ae608082013561019960c0840160a08501610963565b6101a960e0850160c08601610963565b610339565b6101bb8160600135610407565b50565b80517f8ab37fef2b2e34c4b62ff9948ee661cdcf34e209d7c20f4d1f6e83085e93b1fc90600881111561022d5760405162461bcd60e51b8152602060048201526012602482015271757020746f20382076616c696461746f727360701b60448201526064015b60405180910390fd5b8251610242906001840190602086019061085c565b5060028201819055610253816104ae565b8260030181905550505050565b7fd32d7f90491bee81172a406b65f3270d810392fe53bb0379dde8bdd4e624189c8381557fd32d7f90491bee81172a406b65f3270d810392fe53bb0379dde8bdd4e624189d805463ffffffff8481166401000000000267ffffffffffffffff19909216868216179190911773ffffffff00000000ffffffff0000000000000000191642909116600160401b0263ffffffff60801b191617905560408051848152602081018490527fd6f5a5cd17f05cf9045751ee10f662f62e569c9371ffec8380510aabe63012d391015b60405180910390a150505050565b7f844e22529543d6e722c6477171dd50ffe5b412198b92cd9aeea62bbfabe4cc748390557f844e22529543d6e722c6477171dd50ffe5b412198b92cd9aeea62bbfabe4cc7580546001600160a01b038481166001600160a01b031992831681179093557f844e22529543d6e722c6477171dd50ffe5b412198b92cd9aeea62bbfabe4cc7380549185169190921681178255604080518781526020810194909452830152907f5b54873359173c3d639e39928ad34e113039ce7c799d500e57f8a2c703adb4779060600161032b565b7f943d5d24442f02461445e15c5d7d4a4ef0acb0d32c5d6f6af37a6882249912ff6003821080159061043a575060408211155b6104865760405162461bcd60e51b815260206004820152601960248201527f4c6f67206f6620696e7075742073697a653a205b332c36345d000000000000006044820152606401610224565b6001821b60028201556040805160208101909152600081526104a990829061050f565b505050565b600060088211156104f65760405162461bcd60e51b8152602060048201526012602482015271757020746f20382076616c696461746f727360701b6044820152606401610224565b6000610505600180851b6109b8565b60f01b9392505050565b600061051c838330610523565b9392505050565b600283015482516000917fd32d7f90491bee81172a406b65f3270d810392fe53bb0379dde8bdd4e624189c91111561059d5760405162461bcd60e51b815260206004820152601860248201527f696e707574206c656e3a205b302c647269766553697a655d00000000000000006044820152606401610224565b6105a6816106c8565b156105b4576105b48561079b565b600085600301546000146105cb57856001016105cd565b855b905060006105da836107ba565b8254604080516001600160a01b03891660208083019190915243828401524260608301526080820185905260a08083018590528351808403909101815260c0830184528051908201208b518c83012060e0840182905261010080850182905285518086039091018152610120909401909452825192820192909220600180860189556000898152929092209094018490558654949550909391929161067f91906109b8565b847fa15a0da5519c084484141aaa73e525cee96062f5decc97e070f0c4da27738bc78a428d6040516106b3939291906109cf565b60405180910390a39998505050505050505050565b60018101546000908190600160801b900463ffffffff1660028111156106f0576106f061098c565b600184015490915063ffffffff600160401b820481169116600083600281111561071c5761071c61098c565b148015610731575061072e8183610a3b565b42115b15610790576001858101805463ffffffff60801b1916600160801b1790556040517fed606d544c2202d032d2626c390923e6f260ca5d89625bba0cfe70d2bdda4e8f9161077d91610a53565b60405180910390a1506001949350505050565b506000949350505050565b6003810154156107ac5760006107af565b60015b60ff16600390910155565b7f0635ad75fae4d4e8d896461a635d23700076a1c3fd8da26276f18cb1c09ea5675460018201546000917f0635ad75fae4d4e8d896461a635d23700076a1c3fd8da26276f18cb1c09ea566918390600160801b900463ffffffff1660028111156108265761082661098c565b9050600081600281111561083c5761083c61098c565b146108515761084c826001610a3b565b610853565b815b95945050505050565b8280548282559060005260206000209081019282156108b1579160200282015b828111156108b157825182546001600160a01b0319166001600160a01b0390911617825560209092019160019091019061087c565b506108bd9291506108c1565b5090565b5b808211156108bd57600081556001016108c2565b6000602082840312156108e857600080fd5b813567ffffffffffffffff8111156108ff57600080fd5b8201610100818503121561051c57600080fd5b6000808335601e1984360301811261092957600080fd5b83018035915067ffffffffffffffff82111561094457600080fd5b6020019150600581901b360382131561095c57600080fd5b9250929050565b60006020828403121561097557600080fd5b81356001600160a01b038116811461051c57600080fd5b634e487b7160e01b600052602160045260246000fd5b634e487b7160e01b600052601160045260246000fd5b6000828210156109ca576109ca6109a2565b500390565b60018060a01b038416815260006020848184015260606040840152835180606085015260005b81811015610a11578581018301518582016080015282016109f5565b81811115610a23576000608083870101525b50601f01601f19169290920160800195945050505050565b60008219821115610a4e57610a4e6109a2565b500190565b6020810160038310610a7557634e487b7160e01b600052602160045260246000fd5b9190529056fea26469706673582212205c1aea48b8585467b96c762ebc1e8162451390f82e4d8071d25e6dfba85f22bb64736f6c634300080d0033",
  "libraries": {
    "LibClaimsMask": "0x9A676e781A523b5d0C0e43731313A708CB607508"
  },
  "devdoc": {
    "events": {
      "FeeManagerInitialized(uint256,address,address)": {
        "params": {
          "feeManagerBank": "fee manager bank address",
          "feeManagerOwner": "fee manager owner address",
          "feePerClaim": "fee per claim to reward the validators"
        }
      },
      "RollupsInitialized(uint256,uint256)": {
        "params": {
          "challengePeriod": "duration of challenge period in seconds",
          "inputDuration": "duration of input accumulation phase in seconds"
        }
      }
    },
    "kind": "dev",
    "methods": {
      "init((bytes32,uint256,uint256,uint256,uint256,address,address,address[]))": {
        "params": {
          "_dConfig": "diamond configurations"
        }
      }
    },
    "version": 1
  },
  "userdoc": {
    "events": {
      "FeeManagerInitialized(uint256,address,address)": {
        "notice": "FeeManagerImpl contract initialized"
      },
      "RollupsInitialized(uint256,uint256)": {
        "notice": "rollups contract initialized"
      }
    },
    "kind": "user",
    "methods": {
      "init((bytes32,uint256,uint256,uint256,uint256,address,address,address[]))": {
        "notice": "initialize the diamond"
      }
    },
    "version": 1
  },
  "storageLayout": {
    "storage": [],
    "types": null
  }
}