{
  "address": "0x322813Fd9A801c5507c9de605d63CEA4f2CE6c44",
  "abi": [
    {
      "anonymous": false,
      "inputs": [
        {
          "indexed": false,
          "internalType": "address",
          "name": "sender",
          "type": "address"
        },
        {
          "indexed": false,
          "internalType": "uint256",
          "name": "amount",
          "type": "uint256"
        },
        {
          "indexed": false,
          "internalType": "bytes",
          "name": "data",
          "type": "bytes"
        }
      ],
      "name": "EtherDeposited",
      "type": "event"
    },
    {
      "anonymous": false,
      "inputs": [
        {
          "indexed": false,
          "internalType": "address payable",
          "name": "receiver",
          "type": "address"
        },
        {
          "indexed": false,
          "internalType": "uint256",
          "name": "amount",
          "type": "uint256"
        }
      ],
      "name": "EtherWithdrawn",
      "type": "event"
    },
    {
      "inputs": [
        {
          "internalType": "bytes",
          "name": "_data",
          "type": "bytes"
        }
      ],
      "name": "etherDeposit",
      "outputs": [
        {
          "internalType": "bytes32",
          "name": "",
          "type": "bytes32"
        }
      ],
      "stateMutability": "payable",
      "type": "function"
    },
    {
      "inputs": [
        {
          "internalType": "bytes",
          "name": "_data",
          "type": "bytes"
        }
      ],
      "name": "etherWithdrawal",
      "outputs": [
        {
          "internalType": "bool",
          "name": "",
          "type": "bool"
        }
      ],
      "stateMutability": "nonpayable",
      "type": "function"
    }
  ],
  "transactionHash": "0x427ad7f8d928e9d19034cc848dc4c8f0f92f363607ab511903f7590c0c854657",
  "args": [],
  "numDeployments": 1,
  "solcInputHash": "853463bf44733f3d929a32fa4eacb9e6",
  "bytecode": "0x608060405234801561001057600080fd5b50610832806100206000396000f3fe6080604052600436106100295760003560e01c80632abfe7b31461002e57806374956b9414610054575b600080fd5b61004161003c3660046105cf565b610084565b6040519081526020015b60405180910390f35b34801561006057600080fd5b5061007461006f3660046105cf565b610146565b604051901515815260200161004b565b6000807f943d5d24442f02461445e15c5d7d4a4ef0acb0d32c5d6f6af37a6882249912ff905060007ff258e0fc39d35abd7d8393dcfe7e1cf8c745ddca38ae41d451d0c55ac5f2c4ce333487876040516020016100e595949392919061066a565b60405160208183030381529060405290507fa9888e32d8ea552aaeb3018b9c85c77c66ecc61cf8d1989f9e3271a88205ee633334878760405161012b94939291906106a3565b60405180910390a161013d8282610280565b95945050505050565b600033301461018a5760405162461bcd60e51b815260206004820152600b60248201526a37b7363c9034ba39b2b63360a91b60448201526064015b60405180910390fd5b600080610199848601866106d5565b915091506000826001600160a01b03168260405160006040518083038185875af1925050503d80600081146101ea576040519150601f19603f3d011682016040523d82523d6000602084013e6101ef565b606091505b50509050806102325760405162461bcd60e51b815260206004820152600f60248201526e1d1c985b9cd9995c8819985a5b1959608a1b6044820152606401610181565b604080516001600160a01b0385168152602081018490527f06097061aeda806b5e9cb4133d9899f332ff0913956567fc0f7ea15e3d19947c910160405180910390a150600195945050505050565b600061028d838330610294565b9392505050565b600283015482516000917fd32d7f90491bee81172a406b65f3270d810392fe53bb0379dde8bdd4e624189c91111561030e5760405162461bcd60e51b815260206004820152601860248201527f696e707574206c656e3a205b302c647269766553697a655d00000000000000006044820152606401610181565b61031781610439565b156103255761032585610511565b6000856003015460001461033c578560010161033e565b855b9050600061034b83610530565b8254604080516001600160a01b03891660208083019190915243828401524260608301526080820185905260a08083018590528351808403909101815260c0830184528051908201208b518c83012060e084018290526101008085018290528551808603909101815261012090940190945282519282019290922060018086018955600089815292909220909401849055865494955090939192916103f09190610723565b847fa15a0da5519c084484141aaa73e525cee96062f5decc97e070f0c4da27738bc78a428d6040516104249392919061073a565b60405180910390a39998505050505050505050565b60018101546000908190600160801b900463ffffffff166002811115610461576104616107a6565b600184015490915063ffffffff680100000000000000008204811691166000836002811115610492576104926107a6565b1480156104a757506104a481836107bc565b42115b15610506576001858101805463ffffffff60801b1916600160801b1790556040517fed606d544c2202d032d2626c390923e6f260ca5d89625bba0cfe70d2bdda4e8f916104f3916107d4565b60405180910390a1506001949350505050565b506000949350505050565b600381015415610522576000610525565b60015b60ff16600390910155565b7f0635ad75fae4d4e8d896461a635d23700076a1c3fd8da26276f18cb1c09ea5675460018201546000917f0635ad75fae4d4e8d896461a635d23700076a1c3fd8da26276f18cb1c09ea566918390600160801b900463ffffffff16600281111561059c5761059c6107a6565b905060008160028111156105b2576105b26107a6565b146105c7576105c28260016107bc565b61013d565b509392505050565b600080602083850312156105e257600080fd5b823567ffffffffffffffff808211156105fa57600080fd5b818501915085601f83011261060e57600080fd5b81358181111561061d57600080fd5b86602082850101111561062f57600080fd5b60209290920196919550909350505050565b81835281816020850137506000828201602090810191909152601f909101601f19169091010190565b85815260018060a01b0385166020820152836040820152608060608201526000610698608083018486610641565b979650505050505050565b60018060a01b03851681528360208201526060604082015260006106cb606083018486610641565b9695505050505050565b600080604083850312156106e857600080fd5b82356001600160a01b03811681146106ff57600080fd5b946020939093013593505050565b634e487b7160e01b600052601160045260246000fd5b6000828210156107355761073561070d565b500390565b60018060a01b038416815260006020848184015260606040840152835180606085015260005b8181101561077c57858101830151858201608001528201610760565b8181111561078e576000608083870101525b50601f01601f19169290920160800195945050505050565b634e487b7160e01b600052602160045260246000fd5b600082198211156107cf576107cf61070d565b500190565b60208101600383106107f657634e487b7160e01b600052602160045260246000fd5b9190529056fea26469706673582212205f8b8b334540ae8474e8ed820a158d5c1603d75d34c78a0a7fdce1a205004e7864736f6c634300080d0033",
  "devdoc": {
    "kind": "dev",
    "methods": {
      "etherDeposit(bytes)": {
        "params": {
          "_data": "information to be interpreted by L2"
        },
        "returns": {
          "_0": "hash of input generated by deposit"
        }
      },
      "etherWithdrawal(bytes)": {
        "details": "can only be called by the Rollups contract",
        "params": {
          "_data": "data with withdrawal information"
        }
      }
    },
    "version": 1
  },
  "userdoc": {
    "events": {
      "EtherDeposited(address,uint256,bytes)": {
        "notice": "emitted on Ether deposited"
      },
      "EtherWithdrawn(address,uint256)": {
        "notice": "emitted on Ether withdrawal"
      }
    },
    "kind": "user",
    "methods": {
      "etherDeposit(bytes)": {
        "notice": "deposit an amount of Ether in the portal and create Ether in L2"
      },
      "etherWithdrawal(bytes)": {
        "notice": "withdraw an amount of Ether from the portal"
      }
    },
    "version": 1
  },
  "storageLayout": {
    "storage": [],
    "types": null
  }
}