{
  "address": "0xa85233C63b9Ee964Add6F2cffe00Fd84eb32338f",
  "abi": [
    {
      "anonymous": false,
      "inputs": [
        {
          "indexed": false,
          "internalType": "uint256",
          "name": "value",
          "type": "uint256"
        }
      ],
      "name": "FeePerClaimReset",
      "type": "event"
    },
    {
      "anonymous": false,
      "inputs": [
        {
          "indexed": false,
          "internalType": "address",
          "name": "validator",
          "type": "address"
        },
        {
          "indexed": false,
          "internalType": "uint256",
          "name": "claims",
          "type": "uint256"
        }
      ],
      "name": "FeeRedeemed",
      "type": "event"
    },
    {
      "inputs": [],
      "name": "getFeeManagerBank",
      "outputs": [
        {
          "internalType": "contract IBank",
          "name": "",
          "type": "address"
        }
      ],
      "stateMutability": "view",
      "type": "function"
    },
    {
      "inputs": [
        {
          "internalType": "address",
          "name": "_validator",
          "type": "address"
        }
      ],
      "name": "getNumClaimsRedeemed",
      "outputs": [
        {
          "internalType": "uint256",
          "name": "",
          "type": "uint256"
        }
      ],
      "stateMutability": "view",
      "type": "function"
    },
    {
      "inputs": [
        {
          "internalType": "address",
          "name": "_validator",
          "type": "address"
        }
      ],
      "name": "numClaimsRedeemable",
      "outputs": [
        {
          "internalType": "uint256",
          "name": "",
          "type": "uint256"
        }
      ],
      "stateMutability": "view",
      "type": "function"
    },
    {
      "inputs": [
        {
          "internalType": "address",
          "name": "_validator",
          "type": "address"
        }
      ],
      "name": "redeemFee",
      "outputs": [],
      "stateMutability": "nonpayable",
      "type": "function"
    },
    {
      "inputs": [
        {
          "internalType": "uint256",
          "name": "_value",
          "type": "uint256"
        }
      ],
      "name": "resetFeePerClaim",
      "outputs": [],
      "stateMutability": "nonpayable",
      "type": "function"
    }
  ],
  "transactionHash": "0xaa9e28a7bf6c6fc245c381176ae8dfd6c0ab95e755f5977dbed23df6ed68d366",
  "args": [],
  "numDeployments": 1,
  "solcInputHash": "853463bf44733f3d929a32fa4eacb9e6",
  "bytecode": "0x608060405234801561001057600080fd5b50610a61806100206000396000f3fe608060405234801561001057600080fd5b50600436106100575760003560e01c80636e964cea1461005c5780637a5bf67c1461009b578063a859b983146100b0578063de7a8d11146100d1578063e8f56171146100e4575b600080fd5b7f844e22529543d6e722c6477171dd50ffe5b412198b92cd9aeea62bbfabe4cc75546040516001600160a01b0390911681526020015b60405180910390f35b6100ae6100a93660046108ea565b6100f7565b005b6100c36100be366004610903565b61011d565b604051908152602001610092565b6100ae6100df366004610903565b61013f565b6100c36100f2366004610903565b610210565b600080516020610a0c83398151915261010f8161022b565b6101198183610287565b5050565b6000600080516020610a0c8339815191526101388184610418565b9392505050565b7f844e22529543d6e722c6477171dd50ffe5b412198b92cd9aeea62bbfabe4cc7554600080516020610a0c83398151915290600160a01b900460ff16156101c65760405162461bcd60e51b81526020600482015260166024820152751c99595b9d1c985b98de481b9bdd08185b1b1bddd95960521b60448201526064015b60405180910390fd5b60028101805460ff60a01b1916600160a01b17905560006101f2600080516020610a0c83398151915290565b90506101fe81846104ac565b50600201805460ff60a01b1916905550565b6000600080516020610a0c83398151915261013881846105fc565b80546001600160a01b031633146102845760405162461bcd60e51b815260206004820152601760248201527f63616c6c6572206973206e6f7420746865206f776e657200000000000000000060448201526064016101bd565b50565b6000805160206109ec83398151915260005b81600201548110156103d85760008260010182815481106102bc576102bc61092c565b6000918252602090912001546001600160a01b0316905080156103c55760006102e586836105fc565b905080156103c35760038601546102fd9084836106b6565b600387015560018601546000906103149083610958565b600288015460405163bec3fa1760e01b81526001600160a01b0386811660048301526024820184905292935091169063bec3fa1790604401600060405180830381600087803b15801561036657600080fd5b505af115801561037a573d6000803e3d6000fd5b5050604080516001600160a01b0387168152602081018690527f0544e8b0e3ef3679366e27df87030668812cb3284d1acccfb1eb8a0e7b26ead3935001905060405180910390a1505b505b50806103d081610977565b915050610299565b50600183018290556040518281527fd454bae44ce74e91cf62780bdb9278052c00cfd79c13003d5761b400475b12f69060200160405180910390a1505050565b60006001600160a01b03821661046a5760405162461bcd60e51b81526020600482015260176024820152760616464726573732073686f756c64206e6f74206265203604c1b60448201526064016101bd565b6000805160206109ec83398151915260006104858285610709565b905060006104a08287600301546107e890919063ffffffff16565b93505050505b92915050565b60006104b883836105fc565b9050600081116105025760405162461bcd60e51b81526020600482015260156024820152741b9bdd1a1a5b99c81d1bc81c995919595b481e595d605a1b60448201526064016101bd565b6000805160206109ec833981519152600061051d8285610709565b60038601549091506105309082856106b6565b600386015560018501546000906105479085610958565b600287015460405163bec3fa1760e01b81526001600160a01b0388811660048301526024820184905292935091169063bec3fa1790604401600060405180830381600087803b15801561059957600080fd5b505af11580156105ad573d6000803e3d6000fd5b5050604080516001600160a01b0389168152602081018890527f0544e8b0e3ef3679366e27df87030668812cb3284d1acccfb1eb8a0e7b26ead3935001905060405180910390a1505050505050565b60006001600160a01b03821661064e5760405162461bcd60e51b81526020600482015260176024820152760616464726573732073686f756c64206e6f74206265203604c1b60448201526064016101bd565b6000805160206109ec83398151915260006106698285610709565b905060006106848284600301546107e890919063ffffffff16565b9050600061069f8388600301546107e890919063ffffffff16565b90506106ab8183610990565b979650505050505050565b6000600883106106d85760405162461bcd60e51b81526004016101bd906109a7565b60006106e485856107e8565b905060006106f284836109d3565b90506106ff868683610836565b9695505050505050565b60006001600160a01b03821661074d5760405162461bcd60e51b815260206004820152600960248201526806164647265737320360bc1b60448201526064016101bd565b60005b60018401548110156107a9578360010181815481106107715761077161092c565b6000918252602090912001546001600160a01b03908116908416036107975790506104a6565b806107a181610977565b915050610750565b5060405162461bcd60e51b81526020600482015260136024820152721d985b1a59185d1bdc881b9bdd08199bdd5b99606a1b60448201526064016101bd565b60006008821061080a5760405162461bcd60e51b81526004016101bd906109a7565b600061081b60016340000000610990565b90508061082984601e610958565b85901c1691505092915050565b6000600883106108585760405162461bcd60e51b81526004016101bd906109a7565b61086760016340000000610990565b8211156108ac5760405162461bcd60e51b8152602060048201526013602482015272436c61696d734d61736b204f766572666c6f7760681b60448201526064016101bd565b60006108b984601e610958565b6108c860016340000000610990565b901b1990508481166108db85601e610958565b9390931b909217949350505050565b6000602082840312156108fc57600080fd5b5035919050565b60006020828403121561091557600080fd5b81356001600160a01b038116811461013857600080fd5b634e487b7160e01b600052603260045260246000fd5b634e487b7160e01b600052601160045260246000fd5b600081600019048311821515161561097257610972610942565b500290565b60006001820161098957610989610942565b5060010190565b6000828210156109a2576109a2610942565b500390565b602080825260129082015271696e646578206f7574206f662072616e676560701b604082015260600190565b600082198211156109e6576109e6610942565b50019056fe8ab37fef2b2e34c4b62ff9948ee661cdcf34e209d7c20f4d1f6e83085e93b1fc844e22529543d6e722c6477171dd50ffe5b412198b92cd9aeea62bbfabe4cc73a2646970667358221220bbef9ee9631eea87502ee3148d59871e6852c0024e2669ce3d9053cce53809ef64736f6c634300080d0033",
  "libraries": {
    "LibClaimsMask": "0x9A676e781A523b5d0C0e43731313A708CB607508"
  },
  "devdoc": {
    "kind": "dev",
    "methods": {
      "getNumClaimsRedeemed(address)": {
        "params": {
          "_validator": "address of the validator"
        }
      },
      "numClaimsRedeemable(address)": {
        "params": {
          "_validator": "address of the validator"
        }
      },
      "redeemFee(address)": {
        "params": {
          "_validator": "address of the validator that is redeeming"
        }
      },
      "resetFeePerClaim(uint256)": {
        "params": {
          "_value": "the new value of fee per claim"
        }
      }
    },
    "version": 1
  },
  "userdoc": {
    "events": {
      "FeePerClaimReset(uint256)": {
        "notice": "emitted on resetting feePerClaim"
      },
      "FeeRedeemed(address,uint256)": {
        "notice": "emitted on ERC20 funds redeemed by validator"
      }
    },
    "kind": "user",
    "methods": {
      "getFeeManagerBank()": {
        "notice": "returns the bank used to manage fees"
      },
      "getNumClaimsRedeemed(address)": {
        "notice": "this function can be called to check the number of claims that has been redeemed for the validator"
      },
      "numClaimsRedeemable(address)": {
        "notice": "this function can be called to check the number of claims that's redeemable for the validator"
      },
      "redeemFee(address)": {
        "notice": "this function can be called to redeem fees for validators"
      },
      "resetFeePerClaim(uint256)": {
        "notice": "contract owner can reset the value of fee per claim"
      }
    },
    "version": 1
  },
  "storageLayout": {
    "storage": [],
    "types": null
  }
}