{
  "address": "0x09635F643e140090A9A8Dcd712eD6285858ceBef",
  "abi": [
    {
      "anonymous": false,
      "inputs": [
        {
          "indexed": true,
          "internalType": "uint256",
          "name": "epochNumber",
          "type": "uint256"
        },
        {
          "indexed": false,
          "internalType": "address",
          "name": "claimer",
          "type": "address"
        },
        {
          "indexed": false,
          "internalType": "bytes32",
          "name": "epochHash",
          "type": "bytes32"
        }
      ],
      "name": "Claim",
      "type": "event"
    },
    {
      "anonymous": false,
      "inputs": [
        {
          "indexed": true,
          "internalType": "uint256",
          "name": "epochNumber",
          "type": "uint256"
        },
        {
          "indexed": false,
          "internalType": "bytes32",
          "name": "epochHash",
          "type": "bytes32"
        }
      ],
      "name": "FinalizeEpoch",
      "type": "event"
    },
    {
      "anonymous": false,
      "inputs": [
        {
          "indexed": false,
          "internalType": "enum Phase",
          "name": "newPhase",
          "type": "uint8"
        }
      ],
      "name": "PhaseChange",
      "type": "event"
    },
    {
      "anonymous": false,
      "inputs": [
        {
          "indexed": false,
          "internalType": "address",
          "name": "winner",
          "type": "address"
        },
        {
          "indexed": false,
          "internalType": "address",
          "name": "loser",
          "type": "address"
        },
        {
          "indexed": false,
          "internalType": "bytes32",
          "name": "winningClaim",
          "type": "bytes32"
        }
      ],
      "name": "ResolveDispute",
      "type": "event"
    },
    {
      "inputs": [
        {
          "internalType": "bytes32",
          "name": "_epochHash",
          "type": "bytes32"
        }
      ],
      "name": "claim",
      "outputs": [],
      "stateMutability": "nonpayable",
      "type": "function"
    },
    {
      "inputs": [],
      "name": "finalizeEpoch",
      "outputs": [],
      "stateMutability": "nonpayable",
      "type": "function"
    },
    {
      "inputs": [],
      "name": "getChallengePeriod",
      "outputs": [
        {
          "internalType": "uint256",
          "name": "",
          "type": "uint256"
        }
      ],
      "stateMutability": "view",
      "type": "function"
    },
    {
      "inputs": [],
      "name": "getCurrentEpoch",
      "outputs": [
        {
          "internalType": "uint256",
          "name": "",
          "type": "uint256"
        }
      ],
      "stateMutability": "view",
      "type": "function"
    },
    {
      "inputs": [],
      "name": "getCurrentPhase",
      "outputs": [
        {
          "internalType": "enum Phase",
          "name": "",
          "type": "uint8"
        }
      ],
      "stateMutability": "view",
      "type": "function"
    },
    {
      "inputs": [],
      "name": "getInputAccumulationStart",
      "outputs": [
        {
          "internalType": "uint256",
          "name": "",
          "type": "uint256"
        }
      ],
      "stateMutability": "view",
      "type": "function"
    },
    {
      "inputs": [],
      "name": "getInputDuration",
      "outputs": [
        {
          "internalType": "uint256",
          "name": "",
          "type": "uint256"
        }
      ],
      "stateMutability": "view",
      "type": "function"
    },
    {
      "inputs": [],
      "name": "getSealingEpochTimestamp",
      "outputs": [
        {
          "internalType": "uint256",
          "name": "",
          "type": "uint256"
        }
      ],
      "stateMutability": "view",
      "type": "function"
    },
    {
      "inputs": [],
      "name": "getTemplateHash",
      "outputs": [
        {
          "internalType": "bytes32",
          "name": "",
          "type": "bytes32"
        }
      ],
      "stateMutability": "view",
      "type": "function"
    }
  ],
  "transactionHash": "0xe9686301791672797d70426db27ef8ff18afc98cb7c85cd4ff8143cb73e384ea",
  "args": [],
  "numDeployments": 1,
  "solcInputHash": "853463bf44733f3d929a32fa4eacb9e6",
  "bytecode": "0x608060405234801561001057600080fd5b5061170f806100206000396000f3fe608060405234801561001057600080fd5b50600436106100935760003560e01c8063a3a40ea511610066578063a3a40ea51461010b578063b97dd9e214610120578063bd66528a14610128578063ddf7bcf01461013b578063e17ba0121461015d57600080fd5b806354ee1da51461009857806361b12c66146100c95780637864b77d146100de57806382ae9ef714610101575b600080fd5b60008051602061165a83398151915254600160601b900463ffffffff165b6040519081526020015b60405180910390f35b6000805160206116ba833981519152546100b6565b60008051602061165a83398151915254640100000000900463ffffffff166100b6565b610109610178565b005b610113610304565b6040516100c091906114fb565b6100b661034b565b61010961013636600461150e565b610365565b60008051602061165a83398151915254600160401b900463ffffffff166100b6565b60008051602061165a8339815191525463ffffffff166100b6565b60008051602061165a833981519152546000805160206116ba8339815191529060008051602061169a83398151915290600090600160801b900463ffffffff1660028111156101c9576101c96114c7565b905060018160028111156101df576101df6114c7565b146102315760405162461bcd60e51b815260206004820152601b60248201527f506861736520213d204177616974696e6720436f6e73656e737573000000000060448201526064015b60405180910390fd5b600183015463ffffffff600160601b8204811691640100000000900416610258818361153d565b42116102a65760405162461bcd60e51b815260206004820152601960248201527f4368616c6c656e676520706572696f64206e6f74206f766572000000000000006044820152606401610228565b83546102f45760405162461bcd60e51b815260206004820152601860248201527f4e6f20436c61696d20746f2062652066696e616c697a656400000000000000006044820152606401610228565b6102fd8561057f565b5050505050565b60008051602061165a833981519152546000906000805160206116ba83398151915290600160801b900463ffffffff166002811115610345576103456114c7565b91505090565b60006000805160206116ba833981519152610345816106b7565b6000805160206116ba8339815191527f943d5d24442f02461445e15c5d7d4a4ef0acb0d32c5d6f6af37a6882249912ff7f0635ad75fae4d4e8d896461a635d23700076a1c3fd8da26276f18cb1c09ea56660008051602061169a83398151915260006103cf611477565b6103d7611477565b6001870154600090600160801b900463ffffffff1660028111156103fd576103fd6114c7565b600189015490915063ffffffff600160401b8204811691166000836002811115610429576104296114c7565b14801561043e575061043b818361153d565b42115b156104af5760018a8101805463ffffffff60801b1916600160801b17905560405190935060008051602061167a8339815191529061047d9085906114fb565b60405180910390a161048e89610759565b60018a01805463ffffffff60601b1916600160601b4263ffffffff16021790555b60018360028111156104c3576104c36114c7565b146105105760405162461bcd60e51b815260206004820152601a60248201527f506861736520213d204177616974696e67436f6e73656e7375730000000000006044820152606401610228565b61051b87338d610765565b9197509550935061052d886001015490565b60408051338152602081018e90527fd31325e5dc55b03edf08c70299d3b1bc8d4c2ca8512c90138ddd03e3f54fce6c910160405180910390a26105728a878787610986565b5050505050505050505050565b60018101805463ffffffff60801b191690556040517f943d5d24442f02461445e15c5d7d4a4ef0acb0d32c5d6f6af37a6882249912ff907f0635ad75fae4d4e8d896461a635d23700076a1c3fd8da26276f18cb1c09ea5669060008051602061169a8339815191529060008051602061167a83398151915290610604906000906114fb565b60405180910390a160018401805463ffffffff60601b1963ffffffff4216600160401b02166fffffffffffffffff0000000000000000199091161763ffffffff60601b179055600061065582610adc565b9050610662836001015490565b6040518281527f6e3d05bc77b9307d9ba574c7c3196a746edd51104ded1c823edc63be4b8a63c39060200160405180910390a2600180840180549182018155600090815260209020018190556102fd84610b39565b7f0635ad75fae4d4e8d896461a635d23700076a1c3fd8da26276f18cb1c09ea5675460018201546000917f0635ad75fae4d4e8d896461a635d23700076a1c3fd8da26276f18cb1c09ea566918390600160801b900463ffffffff166002811115610723576107236114c7565b90506000816002811115610739576107396114c7565b1461074e5761074982600161153d565b610750565b815b95945050505050565b61076281610b5c565b50565b600061076f611477565b610777611477565b836107b25760405162461bcd60e51b815260206004820152600b60248201526a656d70747920636c61696d60a81b6044820152606401610228565b6107bc8686610b7b565b6107fd5760405162461bcd60e51b81526020600482015260126024820152711cd95b99195c881b9bdd08185b1b1bddd95960721b6044820152606401610228565b60006108098787610c2a565b600388015490915060f81c811c600116156108765760405162461bcd60e51b815260206004820152602760248201527f73656e6465722068616420636c61696d656420696e20746869732065706f6368604482015266206265666f726560c81b6064820152608401610228565b8654610884578487556108e4565b865485146108e4576108d8600260405180604001604052808a6000015481526020018881525060405180604001604052806108be8c610d09565b6001600160a01b0390811682528b16602090910152610dc3565b9350935093505061097d565b6108ee8787610e1c565b6108f787610e47565b61093b576040805180820182528681526000602080830182905283518085019094526001600160a01b038a168452830181905261093692909190610dc3565b610975565b6040805180820182528681526000602080830182905283518085019094526001600160a01b038a1684528301526109759160019190610dc3565b935093509350505b93509350939050565b600083600281111561099a5761099a6114c7565b03610a24576001840154600090600160801b900463ffffffff1660028111156109c5576109c56114c7565b905060018160028111156109db576109db6114c7565b14610a1e576001858101805463ffffffff60801b1916600160801b17905560405160008051602061167a83398151915291610a15916114fb565b60405180910390a15b50610ad6565b6001836002811115610a3857610a386114c7565b03610a4b57610a468461057f565b610ad6565b6001840154600090600160801b900463ffffffff166002811115610a7157610a716114c7565b90506002816002811115610a8757610a876114c7565b14610acc5760018501805463ffffffff60801b1916600160811b17905560405160008051602061167a83398151915290610ac3906002906114fb565b60405180910390a15b6102fd8383610e69565b50505050565b6000610ae782610e92565b81546000835560038301546001600160f81b031660038401556040518181527fddc860800a99149017c480ec51523bf4143b7215e78956ae5c31e5c568f5383a9060200160405180910390a192915050565b600381015415610b4e57610762816000611495565b610762600182016000611495565b600381015415610b6d576000610b70565b60015b60ff16600390910155565b60006001600160a01b038216610bbf5760405162461bcd60e51b815260206004820152600960248201526806164647265737320360bc1b6044820152606401610228565b60005b6001840154811015610c1e57836001018181548110610be357610be3611555565b6000918252602090912001546001600160a01b0390811690841603610c0c576001915050610c24565b80610c168161156b565b915050610bc2565b50600090505b92915050565b60006001600160a01b038216610c6e5760405162461bcd60e51b815260206004820152600960248201526806164647265737320360bc1b6044820152606401610228565b60005b6001840154811015610cca57836001018181548110610c9257610c92611555565b6000918252602090912001546001600160a01b0390811690841603610cb8579050610c24565b80610cc28161156b565b915050610c71565b5060405162461bcd60e51b81526020600482015260136024820152721d985b1a59185d1bdc881b9bdd08199bdd5b99606a1b6044820152606401610228565b600080610d1a836003015460f81c90565b905060005b6001840154811015610d7a576001811b821615610d6857836001018181548110610d4b57610d4b611555565b6000918252602090912001546001600160a01b0316949350505050565b80610d728161156b565b915050610d1f565b5060405162461bcd60e51b815260206004820152601c60248201527f4167726565696e672076616c696461746f72206e6f7420666f756e64000000006044820152606401610228565b6000610dcd611477565b610dd5611477565b7f495383aed97965c56495cdbadedfe9667a1b028c54d3fc4b5335895146e02b70868686604051610e0893929190611584565b60405180910390a150939492935090919050565b6000610e288383610c2a565b6003840154909150610e3a9082610ee7565b8360030181905550505050565b600381015460009060f081901c60ff16610e618260f81c90565b149392505050565b8051602082015183516000805160206116ba83398151915292610e8d928492610f25565b505050565b6000610ea2826003015460f81c90565b905060005b6001830154811015610e8d576001811b821615610ed5576003830154610ecf90826001610fdb565b60038401555b80610edf8161156b565b915050610ea7565b600060088210610f095760405162461bcd60e51b8152600401610228906115f7565b6000610f168360f861153d565b6001901b841791505092915050565b6000610f2f611477565b610f37611477565b60008051602061169a833981519152610f528188888861102e565b60018b01805463ffffffff60601b1916600160601b4263ffffffff1602179055604080516001600160a01b03808d1682528b16602082015290810189905292965090945092507f2afbde4d47160a9c5de25b0df88d5b83e705286f2a447cac162db5e99ad6f5d29060600160405180910390a1610fd188858585610986565b5050505050505050565b600060088310610ffd5760405162461bcd60e51b8152600401610228906115f7565b600061100985856111e2565b90506000611017848361153d565b9050611024868683611230565b9695505050505050565b6000611038611477565b611040611477565b61104a87866112e4565b865484036110e45761105b87610e47565b61109f576040805180820182528581526000602080830182905283518085019094526001600160a01b038a168452830181905261109a929091906113b8565b6110d9565b6040805180820182528581526000602080830182905283518085019094526001600160a01b038a1684528301526110d991600191906113b8565b9250925092506111d8565b600387015460f81c1561113d576110d9600260405180604001604052808a6000015481526020018781525060405180604001604052806111238c610d09565b6001600160a01b0390811682528b166020909101526113b8565b83875561114a8787610e1c565b61115387610e47565b611197576040805180820182528581526000602080830182905283518085019094526001600160a01b038a1684528301819052611192929091906113b8565b6111d1565b6040805180820182528581526000602080830182905283518085019094526001600160a01b038a1684528301526111d191600191906113b8565b9250925092505b9450945094915050565b6000600882106112045760405162461bcd60e51b8152600401610228906115f7565b600061121560016340000000611623565b90508061122384601e61163a565b85901c1691505092915050565b6000600883106112525760405162461bcd60e51b8152600401610228906115f7565b61126160016340000000611623565b8211156112a65760405162461bcd60e51b8152602060048201526013602482015272436c61696d734d61736b204f766572666c6f7760681b6044820152606401610228565b60006112b384601e61163a565b6112c260016340000000611623565b901b1990508481166112d585601e61163a565b9390931b909217949350505050565b7f844e22529543d6e722c6477171dd50ffe5b412198b92cd9aeea62bbfabe4cc7360005b6001840154811015610ad65783600101818154811061132957611329611555565b6000918252602090912001546001600160a01b03908116908416036113a657600084600101828154811061135f5761135f611555565b600091825260209091200180546001600160a01b0319166001600160a01b0392909216919091179055600384015461139790826113fd565b6003850155610a46828261145a565b806113b08161156b565b915050611308565b60006113c2611477565b6113ca611477565b7f09201c193a07cae1df95ae692cc698685574c942a04514c48a4c3249f38594ff868686604051610e0893929190611584565b60006008821061141f5760405162461bcd60e51b8152600401610228906115f7565b82600061142d8460f861153d565b6001901b199182169190506114438460f061153d565b6001901b1991821691905061075082856000611230565b600382015461146b90826000611230565b82600301819055505050565b60405180604001604052806002906020820280368337509192915050565b508054600082559060005260206000209081019061076291905b808211156114c357600081556001016114af565b5090565b634e487b7160e01b600052602160045260246000fd5b6003811061076257634e487b7160e01b600052602160045260246000fd5b60208101611508836114dd565b91905290565b60006020828403121561152057600080fd5b5035919050565b634e487b7160e01b600052601160045260246000fd5b6000821982111561155057611550611527565b500190565b634e487b7160e01b600052603260045260246000fd5b60006001820161157d5761157d611527565b5060010190565b60a08101611591856114dd565b84825260208083018560005b60028110156115ba5781518352918301919083019060010161159d565b505050606083018460005b60028110156115eb5781516001600160a01b0316835291830191908301906001016115c5565b50505050949350505050565b602080825260129082015271696e646578206f7574206f662072616e676560701b604082015260600190565b60008282101561163557611635611527565b500390565b600081600019048311821515161561165457611654611527565b50029056fed32d7f90491bee81172a406b65f3270d810392fe53bb0379dde8bdd4e624189ded606d544c2202d032d2626c390923e6f260ca5d89625bba0cfe70d2bdda4e8f8ab37fef2b2e34c4b62ff9948ee661cdcf34e209d7c20f4d1f6e83085e93b1fcd32d7f90491bee81172a406b65f3270d810392fe53bb0379dde8bdd4e624189ca264697066735822122005a48434be4f5e94111d6d06fc627e4729c541be34424a5e0fb455dd1e4422ab64736f6c634300080d0033",
  "libraries": {
    "LibClaimsMask": "0x9A676e781A523b5d0C0e43731313A708CB607508"
  },
  "devdoc": {
    "kind": "dev",
    "methods": {
      "claim(bytes32)": {
        "details": "ValidatorManager makes sure that msg.sender is allowed      and that claim != bytes32(0) TODO: add signatures for aggregated claims",
        "params": {
          "_epochHash": "hash of epoch"
        }
      },
      "finalizeEpoch()": {
        "details": "can only be called if challenge period is over"
      },
      "getCurrentEpoch()": {
        "details": "if phase is input accumulation, then the epoch number is length      of finalized epochs array, else there are two non finalized epochs,      one awaiting consensus/dispute and another accumulating input",
        "returns": {
          "_0": "index of current epoch"
        }
      }
    },
    "version": 1
  },
  "userdoc": {
    "events": {
      "Claim(uint256,address,bytes32)": {
        "notice": "claim submitted"
      },
      "FinalizeEpoch(uint256,bytes32)": {
        "notice": "epoch finalized"
      },
      "PhaseChange(uint8)": {
        "notice": "phase change"
      },
      "ResolveDispute(address,address,bytes32)": {
        "notice": "dispute resolved"
      }
    },
    "kind": "user",
    "methods": {
      "claim(bytes32)": {
        "notice": "claim the result of current epoch"
      },
      "finalizeEpoch()": {
        "notice": "finalize epoch after timeout"
      },
      "getChallengePeriod()": {
        "notice": "returns the challenge period in seconds"
      },
      "getCurrentEpoch()": {
        "notice": "returns index of current (accumulating) epoch"
      },
      "getCurrentPhase()": {
        "notice": "returns the current phase"
      },
      "getInputAccumulationStart()": {
        "notice": "returns the input accumulation start timestamp"
      },
      "getInputDuration()": {
        "notice": "returns the input duration in seconds"
      },
      "getSealingEpochTimestamp()": {
        "notice": "returns the sealing epoch timestamp"
      },
      "getTemplateHash()": {
        "notice": "returns the machine's template hash"
      }
    },
    "version": 1
  },
  "storageLayout": {
    "storage": [],
    "types": null
  }
}