{
  "address": "0x5FC8d32690cc91D4c39d9d3abcBD16989F875707",
  "abi": [
    {
      "inputs": [
        {
          "internalType": "address",
          "name": "_workerManager",
          "type": "address"
        }
      ],
      "stateMutability": "nonpayable",
      "type": "constructor"
    },
    {
      "anonymous": false,
      "inputs": [
        {
          "indexed": true,
          "internalType": "address",
          "name": "user",
          "type": "address"
        },
        {
          "indexed": true,
          "internalType": "address",
          "name": "worker",
          "type": "address"
        },
        {
          "indexed": true,
          "internalType": "address",
          "name": "dapp",
          "type": "address"
        }
      ],
      "name": "Authorization",
      "type": "event"
    },
    {
      "anonymous": false,
      "inputs": [
        {
          "indexed": true,
          "internalType": "address",
          "name": "user",
          "type": "address"
        },
        {
          "indexed": true,
          "internalType": "address",
          "name": "worker",
          "type": "address"
        },
        {
          "indexed": true,
          "internalType": "address",
          "name": "dapp",
          "type": "address"
        }
      ],
      "name": "Deauthorization",
      "type": "event"
    },
    {
      "inputs": [
        {
          "internalType": "address",
          "name": "_workerAddress",
          "type": "address"
        },
        {
          "internalType": "address",
          "name": "_dappAddress",
          "type": "address"
        }
      ],
      "name": "authorize",
      "outputs": [],
      "stateMutability": "nonpayable",
      "type": "function"
    },
    {
      "inputs": [
        {
          "internalType": "address",
          "name": "_workerAddress",
          "type": "address"
        },
        {
          "internalType": "address",
          "name": "_dappAddress",
          "type": "address"
        }
      ],
      "name": "deauthorize",
      "outputs": [],
      "stateMutability": "nonpayable",
      "type": "function"
    },
    {
      "inputs": [
        {
          "internalType": "address",
          "name": "_workerAddress",
          "type": "address"
        }
      ],
      "name": "getOwner",
      "outputs": [
        {
          "internalType": "address",
          "name": "",
          "type": "address"
        }
      ],
      "stateMutability": "view",
      "type": "function"
    },
    {
      "inputs": [
        {
          "internalType": "address",
          "name": "_workerAddress",
          "type": "address"
        },
        {
          "internalType": "address",
          "name": "_dappAddress",
          "type": "address"
        }
      ],
      "name": "isAuthorized",
      "outputs": [
        {
          "internalType": "bool",
          "name": "",
          "type": "bool"
        }
      ],
      "stateMutability": "view",
      "type": "function"
    }
  ],
  "transactionHash": "0x7a4792ed907c93f174bd72de48d6e9c24dc679b57bbb861923aeb90a6756295b",
  "args": [
    "0xDc64a140Aa3E981100a9becA4E685f962f0cF6C9"
  ],
  "numDeployments": 1,
  "bytecode": "0x608060405234801561001057600080fd5b506040516106dc3803806106dc83398101604081905261002f91610054565b600080546001600160a01b0319166001600160a01b0392909216919091179055610082565b600060208284031215610065578081fd5b81516001600160a01b038116811461007b578182fd5b9392505050565b61064b806100916000396000f3fe608060405234801561001057600080fd5b506004361061004c5760003560e01c80632bef45951461005157806365e4ad9e146100665780636d892f7e1461008e578063fa544161146100a1575b600080fd5b61006461005f3660046105c5565b6100cc565b005b6100796100743660046105c5565b61026f565b60405190151581526020015b60405180910390f35b61006461009c3660046105c5565b610318565b6100b46100af366004610586565b6104ad565b6040516001600160a01b039091168152602001610085565b60005460405163fa54416160e01b81526001600160a01b0380851660048301528492339291169063fa5441619060240160206040518083038186803b15801561011457600080fd5b505afa158015610128573d6000803e3d6000fd5b505050506040513d601f19601f8201168201806040525081019061014c91906105a9565b6001600160a01b0316146101a75760405162461bcd60e51b815260206004820152601a60248201527f776f726b6572206e6f742068697265642062792073656e64657200000000000060448201526064015b60405180910390fd5b60006101b4338585610531565b60008181526001602052604090205490915060ff16156102165760405162461bcd60e51b815260206004820152601760248201527f6461707020616c726561647920617574686f72697a6564000000000000000000604482015260640161019e565b6000818152600160208190526040808320805460ff1916909217909155516001600160a01b03808616929087169133917fde756a416a233cdb16c23a1fa5dcb3113164968df8607e0a4eeca25974b96e0391a450505050565b6000805460405163fa54416160e01b81526001600160a01b03858116600483015260019284926102fd929091169063fa5441619060240160206040518083038186803b1580156102be57600080fd5b505afa1580156102d2573d6000803e3d6000fd5b505050506040513d601f19601f820116820180604052508101906102f691906105a9565b8686610531565b815260208101919091526040016000205460ff169392505050565b60005460405163fa54416160e01b81526001600160a01b0380851660048301528492339291169063fa5441619060240160206040518083038186803b15801561036057600080fd5b505afa158015610374573d6000803e3d6000fd5b505050506040513d601f19601f8201168201806040525081019061039891906105a9565b6001600160a01b0316146103ee5760405162461bcd60e51b815260206004820152601a60248201527f776f726b6572206e6f742068697265642062792073656e646572000000000000604482015260640161019e565b60006103fb338585610531565b60008181526001602081905260409091205491925060ff90911615151461045a5760405162461bcd60e51b815260206004820152601360248201527219185c1c081b9bdd08185d5d1a1bdc9a5e9959606a1b604482015260640161019e565b600081815260016020526040808220805460ff19169055516001600160a01b03808616929087169133917f4d2275ddb8a6d9c36c95476c2eaf9746c1785b4ab76a99719fd647b36da46cee91a450505050565b6000805460405163fa54416160e01b81526001600160a01b0384811660048301529091169063fa5441619060240160206040518083038186803b1580156104f357600080fd5b505afa158015610507573d6000803e3d6000fd5b505050506040513d601f19601f8201168201806040525081019061052b91906105a9565b92915050565b6040516bffffffffffffffffffffffff19606085811b8216602084015284811b8216603484015283901b166048820152600090605c016040516020818303038152906040528051906020012090509392505050565b600060208284031215610597578081fd5b81356105a2816105fd565b9392505050565b6000602082840312156105ba578081fd5b81516105a2816105fd565b600080604083850312156105d7578081fd5b82356105e2816105fd565b915060208301356105f2816105fd565b809150509250929050565b6001600160a01b038116811461061257600080fd5b5056fea2646970667358221220b1862e5175b3b9a9fc5da21d120da98326517836ca159b01590210084513622d64736f6c63430008040033",
  "devdoc": {
    "kind": "dev",
    "methods": {
      "authorize(address,address)": {
        "params": {
          "_dappAddress": "address of the dapp that permission will be given to",
          "_workerAddress": "address of the worker node to given permission"
        }
      },
      "isAuthorized(address,address)": {
        "params": {
          "_dappAddress": "address of the DApp",
          "_workerAddress": "address of the worker"
        }
      }
    },
    "stateVariables": {
      "permissions": {
        "details": "permissions keyed by hash(user, worker, dapp)"
      }
    },
    "version": 1
  },
  "userdoc": {
    "events": {
      "Authorization(address,address,address)": {
        "notice": "A DApp has been authorized by a user for a worker"
      },
      "Deauthorization(address,address,address)": {
        "notice": "A DApp has been deauthorized by a user for a worker"
      }
    },
    "kind": "user",
    "methods": {
      "authorize(address,address)": {
        "notice": "Gives worker permission to act on a DApp"
      },
      "isAuthorized(address,address)": {
        "notice": "Returns is the dapp is authorized to be called by that worker"
      }
    },
    "version": 1
  },
  "storageLayout": {
    "storage": [
      {
        "astId": 63,
        "contract": "contracts/WorkerAuthManagerImpl.sol:WorkerAuthManagerImpl",
        "label": "workerManager",
        "offset": 0,
        "slot": "0",
        "type": "t_contract(WorkerManager)343"
      },
      {
        "astId": 68,
        "contract": "contracts/WorkerAuthManagerImpl.sol:WorkerAuthManagerImpl",
        "label": "permissions",
        "offset": 0,
        "slot": "1",
        "type": "t_mapping(t_bytes32,t_bool)"
      }
    ],
    "types": {
      "t_bool": {
        "encoding": "inplace",
        "label": "bool",
        "numberOfBytes": "1"
      },
      "t_bytes32": {
        "encoding": "inplace",
        "label": "bytes32",
        "numberOfBytes": "32"
      },
      "t_contract(WorkerManager)343": {
        "encoding": "inplace",
        "label": "contract WorkerManager",
        "numberOfBytes": "20"
      },
      "t_mapping(t_bytes32,t_bool)": {
        "encoding": "mapping",
        "key": "t_bytes32",
        "label": "mapping(bytes32 => bool)",
        "numberOfBytes": "32",
        "value": "t_bool"
      }
    }
  }
}