{
  "address": "0x0165878A594ca255338adfa4d48449f69242Eb8F",
  "abi": [
    {
      "anonymous": false,
      "inputs": [
        {
          "indexed": true,
          "internalType": "address",
          "name": "user",
          "type": "address"
        },
        {
          "indexed": true,
          "internalType": "address",
          "name": "worker",
          "type": "address"
        },
        {
          "indexed": true,
          "internalType": "address",
          "name": "dapp",
          "type": "address"
        }
      ],
      "name": "Authorization",
      "type": "event"
    },
    {
      "anonymous": false,
      "inputs": [
        {
          "indexed": true,
          "internalType": "address",
          "name": "user",
          "type": "address"
        },
        {
          "indexed": true,
          "internalType": "address",
          "name": "worker",
          "type": "address"
        },
        {
          "indexed": true,
          "internalType": "address",
          "name": "dapp",
          "type": "address"
        }
      ],
      "name": "Deauthorization",
      "type": "event"
    },
    {
      "anonymous": false,
      "inputs": [
        {
          "indexed": true,
          "internalType": "address",
          "name": "worker",
          "type": "address"
        },
        {
          "indexed": true,
          "internalType": "address",
          "name": "user",
          "type": "address"
        }
      ],
      "name": "JobAccepted",
      "type": "event"
    },
    {
      "anonymous": false,
      "inputs": [
        {
          "indexed": true,
          "internalType": "address",
          "name": "worker",
          "type": "address"
        },
        {
          "indexed": true,
          "internalType": "address",
          "name": "user",
          "type": "address"
        }
      ],
      "name": "JobOffer",
      "type": "event"
    },
    {
      "anonymous": false,
      "inputs": [
        {
          "indexed": true,
          "internalType": "address",
          "name": "worker",
          "type": "address"
        },
        {
          "indexed": true,
          "internalType": "address",
          "name": "user",
          "type": "address"
        }
      ],
      "name": "JobRejected",
      "type": "event"
    },
    {
      "anonymous": false,
      "inputs": [
        {
          "indexed": true,
          "internalType": "address",
          "name": "worker",
          "type": "address"
        },
        {
          "indexed": true,
          "internalType": "address",
          "name": "user",
          "type": "address"
        }
      ],
      "name": "Retired",
      "type": "event"
    },
    {
      "inputs": [],
      "name": "acceptJob",
      "outputs": [],
      "stateMutability": "nonpayable",
      "type": "function"
    },
    {
      "inputs": [
        {
          "internalType": "address",
          "name": "_workerAddress",
          "type": "address"
        },
        {
          "internalType": "address",
          "name": "_dappAddress",
          "type": "address"
        }
      ],
      "name": "authorize",
      "outputs": [],
      "stateMutability": "nonpayable",
      "type": "function"
    },
    {
      "inputs": [
        {
          "internalType": "address",
          "name": "_workerAddress",
          "type": "address"
        }
      ],
      "name": "cancelHire",
      "outputs": [],
      "stateMutability": "nonpayable",
      "type": "function"
    },
    {
      "inputs": [
        {
          "internalType": "address",
          "name": "_workerAddress",
          "type": "address"
        },
        {
          "internalType": "address",
          "name": "_dappAddress",
          "type": "address"
        }
      ],
      "name": "deauthorize",
      "outputs": [],
      "stateMutability": "nonpayable",
      "type": "function"
    },
    {
      "inputs": [
        {
          "internalType": "address",
          "name": "_workerAddress",
          "type": "address"
        }
      ],
      "name": "getOwner",
      "outputs": [
        {
          "internalType": "address",
          "name": "",
          "type": "address"
        }
      ],
      "stateMutability": "view",
      "type": "function"
    },
    {
      "inputs": [
        {
          "internalType": "address",
          "name": "_workerAddress",
          "type": "address"
        }
      ],
      "name": "getUser",
      "outputs": [
        {
          "internalType": "address",
          "name": "",
          "type": "address"
        }
      ],
      "stateMutability": "view",
      "type": "function"
    },
    {
      "inputs": [
        {
          "internalType": "address payable",
          "name": "_workerAddress",
          "type": "address"
        }
      ],
      "name": "hire",
      "outputs": [],
      "stateMutability": "payable",
      "type": "function"
    },
    {
      "inputs": [
        {
          "internalType": "address payable",
          "name": "_workerAddress",
          "type": "address"
        },
        {
          "internalType": "address",
          "name": "_dappAddress",
          "type": "address"
        }
      ],
      "name": "hireAndAuthorize",
      "outputs": [],
      "stateMutability": "payable",
      "type": "function"
    },
    {
      "inputs": [
        {
          "internalType": "address",
          "name": "_workerAddress",
          "type": "address"
        },
        {
          "internalType": "address",
          "name": "_dappAddress",
          "type": "address"
        }
      ],
      "name": "isAuthorized",
      "outputs": [
        {
          "internalType": "bool",
          "name": "",
          "type": "bool"
        }
      ],
      "stateMutability": "view",
      "type": "function"
    },
    {
      "inputs": [
        {
          "internalType": "address",
          "name": "workerAddress",
          "type": "address"
        }
      ],
      "name": "isAvailable",
      "outputs": [
        {
          "internalType": "bool",
          "name": "",
          "type": "bool"
        }
      ],
      "stateMutability": "view",
      "type": "function"
    },
    {
      "inputs": [
        {
          "internalType": "address",
          "name": "_workerAddress",
          "type": "address"
        }
      ],
      "name": "isOwned",
      "outputs": [
        {
          "internalType": "bool",
          "name": "",
          "type": "bool"
        }
      ],
      "stateMutability": "view",
      "type": "function"
    },
    {
      "inputs": [
        {
          "internalType": "address",
          "name": "workerAddress",
          "type": "address"
        }
      ],
      "name": "isPending",
      "outputs": [
        {
          "internalType": "bool",
          "name": "",
          "type": "bool"
        }
      ],
      "stateMutability": "view",
      "type": "function"
    },
    {
      "inputs": [
        {
          "internalType": "address",
          "name": "_workerAddress",
          "type": "address"
        }
      ],
      "name": "isRetired",
      "outputs": [
        {
          "internalType": "bool",
          "name": "",
          "type": "bool"
        }
      ],
      "stateMutability": "view",
      "type": "function"
    },
    {
      "inputs": [],
      "name": "rejectJob",
      "outputs": [],
      "stateMutability": "payable",
      "type": "function"
    },
    {
      "inputs": [
        {
          "internalType": "address payable",
          "name": "_workerAddress",
          "type": "address"
        }
      ],
      "name": "retire",
      "outputs": [],
      "stateMutability": "nonpayable",
      "type": "function"
    }
  ],
  "transactionHash": "0xe98b661726674730ed6df15d10b58950dd05412308a6300f0d49a0ca9bdb0d5a",
  "args": [],
  "numDeployments": 1,
  "bytecode": "0x608060405234801561001057600080fd5b50610d08806100206000396000f3fe6080604052600436106100e85760003560e01c80639b789b7e1161008a578063d9d6bd8611610059578063d9d6bd8614610272578063dbd9655414610285578063f4dc754b14610298578063fa544161146102b857600080fd5b80639b789b7e146101fd5780639e6371ba14610212578063a00745b614610232578063b64b3bed1461025257600080fd5b806365e4ad9e116100c657806365e4ad9e1461014c5780636d3c62751461016c5780636d892f7e1461018c5780636f77926b146101ac57600080fd5b806303d6e81e146100ed5780632896f60b146100f75780632bef45951461012c575b600080fd5b6100f56102d8565b005b34801561010357600080fd5b50610117610112366004610c4d565b6103f0565b60405190151581526020015b60405180910390f35b34801561013857600080fd5b506100f5610147366004610ca8565b610436565b34801561015857600080fd5b50610117610167366004610ca8565b610575565b34801561017857600080fd5b50610117610187366004610c4d565b6105a9565b34801561019857600080fd5b506100f56101a7366004610ca8565b6105b2565b3480156101b857600080fd5b506101e56101c7366004610c4d565b6001600160a01b039081166000908152602081905260409020541690565b6040516001600160a01b039091168152602001610123565b34801561020957600080fd5b506100f56106e8565b34801561021e57600080fd5b506100f561022d366004610c4d565b6107cd565b34801561023e57600080fd5b5061011761024d366004610c4d565b610901565b34801561025e57600080fd5b506100f561026d366004610c4d565b61090a565b6100f5610280366004610c4d565b610973565b6100f5610293366004610c70565b610b6b565b3480156102a457600080fd5b506101176102b3366004610c4d565b610b82565b3480156102c457600080fd5b506101e56102d3366004610c4d565b610b8b565b336000908152602081905260409020546001600160a01b03166103425760405162461bcd60e51b815260206004820181905260248201527f776f726b657220646f6573206e6f7420686176652061206a6f62206f6666657260448201526064015b60405180910390fd5b3360009081526020818152604080832080546001600160a01b031981169091556001909252808320805460ff19169055516001600160a01b039091169182913480156108fc0292909190818181858888f193505050501580156103a9573d6000803e3d6000fd5b50336000818152602081905260408082205490516001600160a01b0390911692917fac8bfc64efe7b663f325ca81c7468a291a868aacc74c8f91cdc5c8141c15e38a91a350565b6000805b6001600160a01b03831660009081526001602052604090205460ff16600381111561042f57634e487b7160e01b600052602160045260246000fd5b1492915050565b813361045a826001600160a01b039081166000908152602081905260409020541690565b6001600160a01b0316146104b05760405162461bcd60e51b815260206004820152601a60248201527f776f726b6572206e6f742068697265642062792073656e6465720000000000006044820152606401610339565b60006104bd338585610bf8565b60008181526002602052604090205490915060ff161561051f5760405162461bcd60e51b815260206004820152601760248201527f6461707020616c726561647920617574686f72697a65640000000000000000006044820152606401610339565b600081815260026020526040808220805460ff19166001179055516001600160a01b03808616929087169133917fde756a416a233cdb16c23a1fa5dcb3113164968df8607e0a4eeca25974b96e0391a450505050565b60006002600061058e61058786610b8b565b8686610bf8565b815260208101919091526040016000205460ff169392505050565b600060036103f4565b81336105d6826001600160a01b039081166000908152602081905260409020541690565b6001600160a01b03161461062c5760405162461bcd60e51b815260206004820152601a60248201527f776f726b6572206e6f742068697265642062792073656e6465720000000000006044820152606401610339565b6000610639338585610bf8565b60008181526002602052604090205490915060ff1615156001146106955760405162461bcd60e51b815260206004820152601360248201527219185c1c081b9bdd08185d5d1a1bdc9a5e9959606a1b6044820152606401610339565b600081815260026020526040808220805460ff19169055516001600160a01b03808616929087169133917f4d2275ddb8a6d9c36c95476c2eaf9746c1785b4ab76a99719fd647b36da46cee91a450505050565b60013360009081526001602052604090205460ff16600381111561071c57634e487b7160e01b600052602160045260246000fd5b146107745760405162461bcd60e51b815260206004820152602260248201527f776f726b6572206e6f74206973206e6f7420696e2070656e64696e6720737461604482015261746560f01b6064820152608401610339565b336000818152600160209081526040808320805460ff19166002179055908290528082205490516001600160a01b0390911692917f0cfa12ab8ee8dc6f9b68938d5e764dafed737d43dc5ec8443abf81e645276eb691a3565b60026001600160a01b03821660009081526001602052604090205460ff16600381111561080a57634e487b7160e01b600052602160045260246000fd5b1461084a5760405162461bcd60e51b815260206004820152601060248201526f1ddbdc9ad95c881b9bdd081bdddb995960821b6044820152606401610339565b6001600160a01b038181166000908152602081905260409020541633146108b35760405162461bcd60e51b815260206004820152601c60248201527f6f6e6c79206f776e65722063616e2072657469726520776f726b6572000000006044820152606401610339565b6001600160a01b038116600081815260016020526040808220805460ff19166003179055513392917f657b373e1262c26d1f1a83e8949f0af9067fe48026b308e47eec5ef6b40ff25d91a350565b600060016103f4565b6001600160a01b038181166000908152602081905260409020541633146108b35760405162461bcd60e51b815260206004820152601f60248201527f6f6e6c792068697265722063616e2063616e63656c20746865206f66666572006044820152606401610339565b61097c816103f0565b6109c85760405162461bcd60e51b815260206004820152601760248201527f776f726b6572206973206e6f7420617661696c61626c650000000000000000006044820152606401610339565b6001600160a01b038116610a1e5760405162461bcd60e51b815260206004820152601d60248201527f776f726b657220616464726573732063616e206e6f74206265203078300000006044820152606401610339565b66038d7ea4c68000341015610a6d5760405162461bcd60e51b815260206004820152601560248201527466756e64696e672062656c6f77206d696e696d756d60581b6044820152606401610339565b6729a2241af62c0000341115610abd5760405162461bcd60e51b815260206004820152601560248201527466756e64696e672061626f7665206d6178696d756d60581b6044820152606401610339565b6001600160a01b03811660009081526020818152604080832080546001600160a01b03191633179055600191829052909120805460ff1916828002179055506040516001600160a01b038216903480156108fc02916000818181858888f19350505050158015610b31573d6000803e3d6000fd5b5060405133906001600160a01b038316907f2e0aa97ef0e6f4f76319861c90e91beec7a7a44a698cab856dfc1985a0c588f090600090a350565b610b7482610973565b610b7e8282610436565b5050565b600060026103f4565b600060026001600160a01b03831660009081526001602052604090205460ff166003811115610bca57634e487b7160e01b600052602160045260246000fd5b14610bd6576000610bf2565b6001600160a01b03808316600090815260208190526040902054165b92915050565b6040516bffffffffffffffffffffffff19606085811b8216602084015284811b8216603484015283901b166048820152600090605c016040516020818303038152906040528051906020012090509392505050565b600060208284031215610c5e578081fd5b8135610c6981610cba565b9392505050565b60008060408385031215610c82578081fd5b8235610c8d81610cba565b91506020830135610c9d81610cba565b809150509250929050565b60008060408385031215610c82578182fd5b6001600160a01b0381168114610ccf57600080fd5b5056fea26469706673582212202700c4e4bbaeb90fae58ff3eb584ca659cec3993a24873987c6c38e6b553627464736f6c63430008040033",
  "devdoc": {
    "kind": "dev",
    "methods": {
      "authorize(address,address)": {
        "params": {
          "_dappAddress": "address of the dapp that permission will be given to",
          "_workerAddress": "address of the worker node to given permission"
        }
      },
      "isAuthorized(address,address)": {
        "params": {
          "_dappAddress": "address of the DApp",
          "_workerAddress": "address of the worker"
        }
      },
      "isAvailable(address)": {
        "params": {
          "workerAddress": "address of the worker node"
        }
      },
      "isPending(address)": {
        "params": {
          "workerAddress": "address of the worker node"
        }
      }
    },
    "stateVariables": {
      "MAXIMUM_FUNDING": {
        "details": "transfers bigger than maximum value should be done directly"
      },
      "MINIMUM_FUNDING": {
        "details": "user can only hire a worker if he sends more than minimum value"
      },
      "permissions": {
        "details": "permissions keyed by hash(user, worker, dapp)"
      },
      "stateOf": {
        "details": "mapping from worker to its internal state"
      },
      "userOf": {
        "details": "mapping from worker to its user"
      }
    },
    "version": 1
  },
  "userdoc": {
    "events": {
      "Authorization(address,address,address)": {
        "notice": "A DApp has been authorized by a user for a worker"
      },
      "Deauthorization(address,address,address)": {
        "notice": "A DApp has been deauthorized by a user for a worker"
      },
      "JobOffer(address,address)": {
        "notice": "Events signalling every state transition"
      }
    },
    "kind": "user",
    "methods": {
      "acceptJob()": {
        "notice": "Called by the worker to accept the job"
      },
      "authorize(address,address)": {
        "notice": "Gives worker permission to act on a DApp"
      },
      "isAuthorized(address,address)": {
        "notice": "Returns is the dapp is authorized to be called by that worker"
      },
      "isAvailable(address)": {
        "notice": "Returns true if worker node is available"
      },
      "isPending(address)": {
        "notice": "Returns true if worker node is pending"
      },
      "rejectJob()": {
        "notice": "Called by the worker to reject a job offer"
      }
    },
    "version": 1
  },
  "storageLayout": {
    "storage": [
      {
        "astId": 369,
        "contract": "contracts/WorkerManagerAuthManagerImpl.sol:WorkerManagerAuthManagerImpl",
        "label": "userOf",
        "offset": 0,
        "slot": "0",
        "type": "t_mapping(t_address,t_address_payable)"
      },
      {
        "astId": 375,
        "contract": "contracts/WorkerManagerAuthManagerImpl.sol:WorkerManagerAuthManagerImpl",
        "label": "stateOf",
        "offset": 0,
        "slot": "1",
        "type": "t_mapping(t_address,t_enum(WorkerState)364)"
      },
      {
        "astId": 380,
        "contract": "contracts/WorkerManagerAuthManagerImpl.sol:WorkerManagerAuthManagerImpl",
        "label": "permissions",
        "offset": 0,
        "slot": "2",
        "type": "t_mapping(t_bytes32,t_bool)"
      }
    ],
    "types": {
      "t_address": {
        "encoding": "inplace",
        "label": "address",
        "numberOfBytes": "20"
      },
      "t_address_payable": {
        "encoding": "inplace",
        "label": "address payable",
        "numberOfBytes": "20"
      },
      "t_bool": {
        "encoding": "inplace",
        "label": "bool",
        "numberOfBytes": "1"
      },
      "t_bytes32": {
        "encoding": "inplace",
        "label": "bytes32",
        "numberOfBytes": "32"
      },
      "t_enum(WorkerState)364": {
        "encoding": "inplace",
        "label": "enum WorkerManagerAuthManagerImpl.WorkerState",
        "numberOfBytes": "1"
      },
      "t_mapping(t_address,t_address_payable)": {
        "encoding": "mapping",
        "key": "t_address",
        "label": "mapping(address => address payable)",
        "numberOfBytes": "32",
        "value": "t_address_payable"
      },
      "t_mapping(t_address,t_enum(WorkerState)364)": {
        "encoding": "mapping",
        "key": "t_address",
        "label": "mapping(address => enum WorkerManagerAuthManagerImpl.WorkerState)",
        "numberOfBytes": "32",
        "value": "t_enum(WorkerState)364"
      },
      "t_mapping(t_bytes32,t_bool)": {
        "encoding": "mapping",
        "key": "t_bytes32",
        "label": "mapping(bytes32 => bool)",
        "numberOfBytes": "32",
        "value": "t_bool"
      }
    }
  }
}