{
  "address": "0x485155F7241c851fc7e7F0c58AD43E4FBA5852e2",
  "abi": [
    {
      "inputs": [
        {
          "internalType": "address",
          "name": "_inputContract",
          "type": "address"
        },
        {
          "internalType": "address",
          "name": "_outputContract",
          "type": "address"
        }
      ],
      "stateMutability": "nonpayable",
      "type": "constructor"
    },
    {
      "anonymous": false,
      "inputs": [
        {
          "indexed": false,
          "internalType": "address",
          "name": "_ERC20",
          "type": "address"
        },
        {
          "indexed": false,
          "internalType": "address",
          "name": "_sender",
          "type": "address"
        },
        {
          "indexed": false,
          "internalType": "uint256",
          "name": "_amount",
          "type": "uint256"
        },
        {
          "indexed": false,
          "internalType": "bytes",
          "name": "_data",
          "type": "bytes"
        }
      ],
      "name": "ERC20Deposited",
      "type": "event"
    },
    {
      "anonymous": false,
      "inputs": [
        {
          "indexed": false,
          "internalType": "address",
          "name": "_ERC20",
          "type": "address"
        },
        {
          "indexed": false,
          "internalType": "address payable",
          "name": "_receiver",
          "type": "address"
        },
        {
          "indexed": false,
          "internalType": "uint256",
          "name": "_amount",
          "type": "uint256"
        }
      ],
      "name": "ERC20Withdrawn",
      "type": "event"
    },
    {
      "inputs": [
        {
          "internalType": "address",
          "name": "_ERC20",
          "type": "address"
        },
        {
          "internalType": "uint256",
          "name": "_amount",
          "type": "uint256"
        },
        {
          "internalType": "bytes",
          "name": "_data",
          "type": "bytes"
        }
      ],
      "name": "erc20Deposit",
      "outputs": [
        {
          "internalType": "bytes32",
          "name": "",
          "type": "bytes32"
        }
      ],
      "stateMutability": "nonpayable",
      "type": "function"
    },
    {
      "inputs": [
        {
          "internalType": "bytes",
          "name": "_data",
          "type": "bytes"
        }
      ],
      "name": "executeRollupsVoucher",
      "outputs": [
        {
          "internalType": "bool",
          "name": "",
          "type": "bool"
        }
      ],
      "stateMutability": "nonpayable",
      "type": "function"
    }
  ],
  "transactionHash": "0xb94aa330e7b9d1e1189e42dcfbecb188e1b8c5c1872c56004bb63e9df6e538cd",
  "args": [
    "0xb5Ccad9FE56FDC70d770b107a6D3B354dDF8D1E6",
    "0xB90467e3c4fB5Ac75aAB8D932A4136E5d4EE5814"
  ],
  "numDeployments": 2,
  "bytecode": "0x60c060405234801561001057600080fd5b506040516106f33803806106f383398101604081905261002f91610062565b6001600160a01b0391821660a05216608052610095565b80516001600160a01b038116811461005d57600080fd5b919050565b6000806040838503121561007557600080fd5b61007e83610046565b915061008c60208401610046565b90509250929050565b60805160a05161063a6100b96000396000610347015260006091015261063a6000f3fe608060405234801561001057600080fd5b50600436106100365760003560e01c80635a78177d1461003b578063cb1061a614610063575b600080fd5b61004e610049366004610422565b610084565b60405190151581526020015b60405180910390f35b61007661007136600461047c565b6101ee565b60405190815260200161005a565b6000336001600160a01b037f000000000000000000000000000000000000000000000000000000000000000016146100f95760405162461bcd60e51b81526020600482015260136024820152721bdb9b1e481bdd5d1c1d5d10dbdb9d1c9858dd606a1b60448201526064015b60405180910390fd5b60008080610109858701876104d8565b60405163a9059cbb60e01b81526001600160a01b038084166004830152602482018390529396509194509250849182169063a9059cbb90604401602060405180830381600087803b15801561015d57600080fd5b505af1158015610171573d6000803e3d6000fd5b505050506040513d601f19601f820116820180604052508101906101959190610519565b50604080516001600160a01b038087168252851660208201529081018390527fbfed55bdcd242e3dd0f60ddd7d1e87c67f61c34cd9527b3e6455d841b10253629060600160405180910390a15060019695505050505050565b6040516323b872dd60e01b81523360048201523060248201526044810184905260009085906001600160a01b038216906323b872dd90606401602060405180830381600087803b15801561024157600080fd5b505af1158015610255573d6000803e3d6000fd5b505050506040513d601f19601f820116820180604052508101906102799190610519565b6102c55760405162461bcd60e51b815260206004820152601960248201527f4552433230207472616e7366657246726f6d206661696c65640000000000000060448201526064016100f0565b600033878787876040516020016102e0959493929190610542565b60405160208183030381529060405290507f29e6a9ed1b00933e0de5679ea9bc6ad323969a70b69b627425b46ac0431c7b018733888888604051610328959493929190610542565b60405180910390a1604051631e640f1d60e31b81526001600160a01b037f0000000000000000000000000000000000000000000000000000000000000000169063f32078e89061037c908490600401610596565b602060405180830381600087803b15801561039657600080fd5b505af11580156103aa573d6000803e3d6000fd5b505050506040513d601f19601f820116820180604052508101906103ce91906105eb565b979650505050505050565b60008083601f8401126103eb57600080fd5b50813567ffffffffffffffff81111561040357600080fd5b60208301915083602082850101111561041b57600080fd5b9250929050565b6000806020838503121561043557600080fd5b823567ffffffffffffffff81111561044c57600080fd5b610458858286016103d9565b90969095509350505050565b6001600160a01b038116811461047957600080fd5b50565b6000806000806060858703121561049257600080fd5b843561049d81610464565b935060208501359250604085013567ffffffffffffffff8111156104c057600080fd5b6104cc878288016103d9565b95989497509550505050565b6000806000606084860312156104ed57600080fd5b83356104f881610464565b9250602084013561050881610464565b929592945050506040919091013590565b60006020828403121561052b57600080fd5b8151801515811461053b57600080fd5b9392505050565b6001600160a01b038681168252851660208201526040810184905260806060820181905281018290526000828460a0840137600060a0848401015260a0601f19601f85011683010190509695505050505050565b600060208083528351808285015260005b818110156105c3578581018301518582016040015282016105a7565b818111156105d5576000604083870101525b50601f01601f1916929092016040019392505050565b6000602082840312156105fd57600080fd5b505191905056fea2646970667358221220fd1649f0899420b65f77b06fe8f7f1aa15f38ec7ece302e769cba19d012754dd64736f6c63430008090033",
  "devdoc": {
    "kind": "dev",
    "methods": {
      "erc20Deposit(address,uint256,bytes)": {
        "params": {
          "_ERC20": "address of the ERC20 token contract",
          "_amount": "amount of the ERC20 token to be deposited",
          "_data": "information to be interpreted by L2"
        },
        "returns": {
          "_0": "hash of input generated by deposit"
        }
      },
      "executeRollupsVoucher(bytes)": {
        "details": "can only be called by the Output contract",
        "params": {
          "_data": "data with information necessary to execute voucher"
        }
      }
    },
    "version": 1
  },
  "userdoc": {
    "kind": "user",
    "methods": {
      "erc20Deposit(address,uint256,bytes)": {
        "notice": "deposit an amount of a generic ERC20 in the portal contract and create tokens in L2"
      },
      "executeRollupsVoucher(bytes)": {
        "notice": "execute a rollups voucher"
      }
    },
    "version": 1
  },
  "storageLayout": {
    "storage": [],
    "types": null
  }
}