{
  "address": "0x2DE3edbcF55a1FAC46c665Bb8C0Fd95FB353deEa",
  "abi": [
    {
      "inputs": [
        {
          "internalType": "uint256",
          "name": "_inputDuration",
          "type": "uint256"
        },
        {
          "internalType": "uint256",
          "name": "_challengePeriod",
          "type": "uint256"
        },
        {
          "internalType": "uint256",
          "name": "_inputLog2Size",
          "type": "uint256"
        },
        {
          "internalType": "address payable[]",
          "name": "_validators",
          "type": "address[]"
        }
      ],
      "stateMutability": "nonpayable",
      "type": "constructor"
    },
    {
      "anonymous": false,
      "inputs": [
        {
          "indexed": true,
          "internalType": "uint256",
          "name": "_epochNumber",
          "type": "uint256"
        },
        {
          "indexed": false,
          "internalType": "address",
          "name": "_claimer",
          "type": "address"
        },
        {
          "indexed": false,
          "internalType": "bytes32",
          "name": "_epochHash",
          "type": "bytes32"
        }
      ],
      "name": "Claim",
      "type": "event"
    },
    {
      "anonymous": false,
      "inputs": [
        {
          "indexed": true,
          "internalType": "uint256",
          "name": "_epochNumber",
          "type": "uint256"
        },
        {
          "indexed": false,
          "internalType": "bytes32",
          "name": "_epochHash",
          "type": "bytes32"
        }
      ],
      "name": "FinalizeEpoch",
      "type": "event"
    },
    {
      "anonymous": false,
      "inputs": [
        {
          "indexed": false,
          "internalType": "enum Rollups.Phase",
          "name": "_newPhase",
          "type": "uint8"
        }
      ],
      "name": "PhaseChange",
      "type": "event"
    },
    {
      "anonymous": false,
      "inputs": [
        {
          "indexed": false,
          "internalType": "address",
          "name": "_winner",
          "type": "address"
        },
        {
          "indexed": false,
          "internalType": "address",
          "name": "_loser",
          "type": "address"
        },
        {
          "indexed": false,
          "internalType": "bytes32",
          "name": "_winningClaim",
          "type": "bytes32"
        }
      ],
      "name": "ResolveDispute",
      "type": "event"
    },
    {
      "anonymous": false,
      "inputs": [
        {
          "indexed": false,
          "internalType": "address",
          "name": "_input",
          "type": "address"
        },
        {
          "indexed": false,
          "internalType": "address",
          "name": "_output",
          "type": "address"
        },
        {
          "indexed": false,
          "internalType": "address",
          "name": "_validatorManager",
          "type": "address"
        },
        {
          "indexed": false,
          "internalType": "address",
          "name": "_disputeManager",
          "type": "address"
        },
        {
          "indexed": false,
          "internalType": "uint256",
          "name": "_inputDuration",
          "type": "uint256"
        },
        {
          "indexed": false,
          "internalType": "uint256",
          "name": "_challengePeriod",
          "type": "uint256"
        }
      ],
      "name": "RollupsCreated",
      "type": "event"
    },
    {
      "inputs": [
        {
          "internalType": "bytes32",
          "name": "_epochHash",
          "type": "bytes32"
        }
      ],
      "name": "claim",
      "outputs": [],
      "stateMutability": "nonpayable",
      "type": "function"
    },
    {
      "inputs": [],
      "name": "disputeManager",
      "outputs": [
        {
          "internalType": "contract DisputeManagerImpl",
          "name": "",
          "type": "address"
        }
      ],
      "stateMutability": "view",
      "type": "function"
    },
    {
      "inputs": [],
      "name": "finalizeEpoch",
      "outputs": [],
      "stateMutability": "nonpayable",
      "type": "function"
    },
    {
      "inputs": [],
      "name": "getCurrentEpoch",
      "outputs": [
        {
          "internalType": "uint256",
          "name": "",
          "type": "uint256"
        }
      ],
      "stateMutability": "view",
      "type": "function"
    },
    {
      "inputs": [],
      "name": "getCurrentPhase",
      "outputs": [
        {
          "internalType": "enum Rollups.Phase",
          "name": "",
          "type": "uint8"
        }
      ],
      "stateMutability": "view",
      "type": "function"
    },
    {
      "inputs": [],
      "name": "getDisputeManagerAddress",
      "outputs": [
        {
          "internalType": "address",
          "name": "",
          "type": "address"
        }
      ],
      "stateMutability": "view",
      "type": "function"
    },
    {
      "inputs": [],
      "name": "getInputAccumulationStart",
      "outputs": [
        {
          "internalType": "uint256",
          "name": "",
          "type": "uint256"
        }
      ],
      "stateMutability": "view",
      "type": "function"
    },
    {
      "inputs": [],
      "name": "getInputAddress",
      "outputs": [
        {
          "internalType": "address",
          "name": "",
          "type": "address"
        }
      ],
      "stateMutability": "view",
      "type": "function"
    },
    {
      "inputs": [],
      "name": "getOutputAddress",
      "outputs": [
        {
          "internalType": "address",
          "name": "",
          "type": "address"
        }
      ],
      "stateMutability": "view",
      "type": "function"
    },
    {
      "inputs": [],
      "name": "getValidatorManagerAddress",
      "outputs": [
        {
          "internalType": "address",
          "name": "",
          "type": "address"
        }
      ],
      "stateMutability": "view",
      "type": "function"
    },
    {
      "inputs": [],
      "name": "input",
      "outputs": [
        {
          "internalType": "contract InputImpl",
          "name": "",
          "type": "address"
        }
      ],
      "stateMutability": "view",
      "type": "function"
    },
    {
      "inputs": [],
      "name": "notifyInput",
      "outputs": [
        {
          "internalType": "bool",
          "name": "",
          "type": "bool"
        }
      ],
      "stateMutability": "nonpayable",
      "type": "function"
    },
    {
      "inputs": [],
      "name": "output",
      "outputs": [
        {
          "internalType": "contract OutputImpl",
          "name": "",
          "type": "address"
        }
      ],
      "stateMutability": "view",
      "type": "function"
    },
    {
      "inputs": [
        {
          "internalType": "address payable",
          "name": "_winner",
          "type": "address"
        },
        {
          "internalType": "address payable",
          "name": "_loser",
          "type": "address"
        },
        {
          "internalType": "bytes32",
          "name": "_winningClaim",
          "type": "bytes32"
        }
      ],
      "name": "resolveDispute",
      "outputs": [],
      "stateMutability": "nonpayable",
      "type": "function"
    },
    {
      "inputs": [],
      "name": "storageVar",
      "outputs": [
        {
          "internalType": "uint32",
          "name": "inputDuration",
          "type": "uint32"
        },
        {
          "internalType": "uint32",
          "name": "challengePeriod",
          "type": "uint32"
        },
        {
          "internalType": "uint32",
          "name": "inputAccumulationStart",
          "type": "uint32"
        },
        {
          "internalType": "uint32",
          "name": "sealingEpochTimestamp",
          "type": "uint32"
        },
        {
          "internalType": "uint32",
          "name": "currentPhase_int",
          "type": "uint32"
        }
      ],
      "stateMutability": "view",
      "type": "function"
    },
    {
      "inputs": [],
      "name": "validatorManager",
      "outputs": [
        {
          "internalType": "contract ValidatorManagerImpl",
          "name": "",
          "type": "address"
        }
      ],
      "stateMutability": "view",
      "type": "function"
    }
  ],
  "transactionHash": "0xb389959e2d23a0711afc3103234b0267ace7c8a857081e2d841df755d649d792",
  "args": [
    86400,
    604800,
    25,
    [
      "0x18930e8a66a1DbE21D00581216789AAB7460Afd0"
    ]
  ],
  "numDeployments": 2,
  "bytecode": "0x60806040523480156200001157600080fd5b5060405162003b1538038062003b1583398101604081905262000034916200030f565b30826040516200004490620002a4565b6001600160a01b0390921682526020820152604001604051809103906000f08015801562000076573d6000803e3d6000fd5b50600080546001600160a01b0319166001600160a01b03929092169190911790556040513090620000a790620002b2565b6001600160a01b039091168152602001604051809103906000f080158015620000d4573d6000803e3d6000fd5b50600160006101000a8154816001600160a01b0302191690836001600160a01b0316021790555030816040516200010b90620002c0565b6200011892919062000401565b604051809103906000f08015801562000135573d6000803e3d6000fd5b50600280546001600160a01b0319166001600160a01b039290921691909117905560405130906200016690620002ce565b6001600160a01b039091168152602001604051809103906000f08015801562000193573d6000803e3d6000fd5b50600380546001600160a01b0319166001600160a01b039283169081179091556040805160a0808201835263ffffffff898116808452898216602080860182905242909316858701819052600060608088018290526080978801829052600480546001600160401b03191690951764010000000090940293909317600160401b600160a01b03191668010000000000000000909202600160601b600160a01b0319169190911790925590546001546002548751928a168352908916938201939093529190961681850152948501939093528301879052908201859052517f0c34d7ca767e7f7b827de620cbd78c6291e2ca28d8ac112f26c5121912ea1ecc9181900360c00190a1505050506200045f565b61081e806200164183390190565b610d0f8062001e5f83390190565b610c7f8062002b6e83390190565b61032880620037ed83390190565b634e487b7160e01b600052604160045260246000fd5b80516001600160a01b03811681146200030a57600080fd5b919050565b600080600080608085870312156200032657600080fd5b8451602080870151604088015160608901519397509095509350906001600160401b03808211156200035757600080fd5b818801915088601f8301126200036c57600080fd5b815181811115620003815762000381620002dc565b8060051b604051601f19603f83011681018181108582111715620003a957620003a9620002dc565b60405291825284820192508381018501918b831115620003c857600080fd5b938501935b82851015620003f157620003e185620002f2565b84529385019392850192620003cd565b989b979a50959850505050505050565b6001600160a01b038381168252604060208084018290528451918401829052600092858201929091906060860190855b818110156200045157855185168352948301949183019160010162000431565b509098975050505050505050565b6111d2806200046f6000396000f3fe608060405234801561001057600080fd5b50600436106101005760003560e01c8063ddf7bcf011610097578063f20eaeb811610066578063f20eaeb81461025e578063f3cca85a14610271578063f544c3a614610282578063fe55bde91461029557600080fd5b8063ddf7bcf01461020d578063eaed3f4f14610222578063eaf5cb1a14610235578063eb71b0931461024657600080fd5b806382ae9ef7116100d357806382ae9ef7146101c7578063a3a40ea5146101cf578063b97dd9e2146101e4578063bd66528a146101fa57600080fd5b806321ae6567146101055780632cd007ed1461012f5780634ecfd8d6146101405780636c827cb114610155575b600080fd5b6002546001600160a01b03165b6040516001600160a01b0390911681526020015b60405180910390f35b6001546001600160a01b0316610112565b61015361014e366004610f3b565b6102a8565b005b6004546101909063ffffffff808216916401000000008104821691600160401b8204811691600160601b8104821691600160801b9091041685565b6040805163ffffffff968716815294861660208601529285169284019290925283166060830152909116608082015260a001610126565b610153610423565b6101d76105f5565b6040516101269190610f92565b6101ec610621565b604051908152602001610126565b610153610208366004610fba565b610705565b600454600160401b900463ffffffff166101ec565b600054610112906001600160a01b031681565b6003546001600160a01b0316610112565b61024e6109ed565b6040519015158152602001610126565b600154610112906001600160a01b031681565b6000546001600160a01b0316610112565b600354610112906001600160a01b031681565b600254610112906001600160a01b031681565b6003546001600160a01b031633146102ff5760405162461bcd60e51b81526020600482015260156024820152741bdb9b1e48111a5cdc1d5d194810dbdb9d1c9858dd605a1b60448201526064015b60405180910390fd5b6000610309610f05565b610311610f05565b600254604051630d7dc39360e21b81526001600160a01b038881166004830152878116602483015260448201879052909116906335f70e4c9060640160a060405180830381600087803b15801561036757600080fd5b505af115801561037b573d6000803e3d6000fd5b505050506040513d601f19601f8201168201806040525081019061039f919061100a565b6004805463ffffffff60601b1916600160601b4263ffffffff1602179055604080516001600160a01b03808c1682528a16602082015290810188905292955090935091507f2afbde4d47160a9c5de25b0df88d5b83e705286f2a447cac162db5e99ad6f5d29060600160405180910390a161041b838383610af7565b505050505050565b600454600090600160801b900463ffffffff16600281111561044757610447610f7c565b9050600181600281111561045d5761045d610f7c565b146104aa5760405162461bcd60e51b815260206004820152601b60248201527f506861736520213d204177616974696e6720436f6e73656e737573000000000060448201526064016102f6565b60045463ffffffff600160601b82048116916401000000009004166104cf81836110d8565b421161051d5760405162461bcd60e51b815260206004820152601960248201527f4368616c6c656e676520706572696f64206e6f74206f7665720000000000000060448201526064016102f6565b600254604080516320867f6960e21b815290516000926001600160a01b031691638219fda4916004808301926020929190829003018186803b15801561056257600080fd5b505afa158015610576573d6000803e3d6000fd5b505050506040513d601f19601f8201168201806040525081019061059a91906110fe565b14156105e85760405162461bcd60e51b815260206004820152601860248201527f4e6f20436c61696d20746f2062652066696e616c697a6564000000000000000060448201526064016102f6565b6105f0610c9d565b505050565b6004546000908190600160801b900463ffffffff16600281111561061b5761061b610f7c565b92915050565b600080600160009054906101000a90046001600160a01b03166001600160a01b03166383552b4d6040518163ffffffff1660e01b815260040160206040518083038186803b15801561067257600080fd5b505afa158015610686573d6000803e3d6000fd5b505050506040513d601f19601f820116820180604052508101906106aa91906110fe565b600454909150600090600160801b900463ffffffff1660028111156106d1576106d1610f7c565b905060008160028111156106e7576106e7610f7c565b146106fc576106f78260016110d8565b6106fe565b815b9250505090565b600061070f610f05565b610717610f05565b600454600090600160801b900463ffffffff16600281111561073b5761073b610f7c565b60045490915063ffffffff600160401b820481169116600083600281111561076557610765610f7c565b14801561077a575061077781836110d8565b42115b15610837576004805463ffffffff60801b1916600160801b1790556040516001935060008051602061117d833981519152906107b7908590610f92565b60405180910390a1600080546040805163851867b360e01b815290516001600160a01b039092169263851867b39260048084019382900301818387803b15801561080057600080fd5b505af1158015610814573d6000803e3d6000fd5b50506004805463ffffffff60601b1916600160601b4263ffffffff160217905550505b600183600281111561084b5761084b610f7c565b146108985760405162461bcd60e51b815260206004820152601a60248201527f506861736520213d204177616974696e67436f6e73656e73757300000000000060448201526064016102f6565b60025460405163fabc6a2960e01b8152336004820152602481018990526001600160a01b039091169063fabc6a299060440160a060405180830381600087803b1580156108e457600080fd5b505af11580156108f8573d6000803e3d6000fd5b505050506040513d601f19601f8201168201806040525081019061091c919061100a565b600154604080516383552b4d60e01b81529051949a509298509096506001600160a01b0316916383552b4d91600480820192602092909190829003018186803b15801561096857600080fd5b505afa15801561097c573d6000803e3d6000fd5b505050506040513d601f19601f820116820180604052508101906109a091906110fe565b60408051338152602081018a90527fd31325e5dc55b03edf08c70299d3b1bc8d4c2ca8512c90138ddd03e3f54fce6c910160405180910390a26109e4868686610af7565b50505050505050565b600080546001600160a01b03163314610a3e5760405162461bcd60e51b81526020600482015260136024820152721bdb9b1e48125b9c1d5d0810dbdb9d1c9858dd606a1b60448201526064016102f6565b600454600090600160801b900463ffffffff166002811115610a6257610a62610f7c565b60045490915063ffffffff600160401b8204811691166000836002811115610a8c57610a8c610f7c565b148015610aa15750610a9e81836110d8565b42115b15610aed576004805463ffffffff60801b1916600160801b17905560405160008051602061117d83398151915290610adb90600190610f92565b60405180910390a16001935050505090565b6000935050505090565b6000836002811115610b0b57610b0b610f7c565b1415610b9457600454600090600160801b900463ffffffff166002811115610b3557610b35610f7c565b90506001816002811115610b4b57610b4b610f7c565b14610b8e576004805463ffffffff60801b1916600160801b17905560405160008051602061117d83398151915290610b8590600190610f92565b60405180910390a15b50505050565b6001836002811115610ba857610ba8610f7c565b1415610bb6576105f0610c9d565b600454600090600160801b900463ffffffff166002811115610bda57610bda610f7c565b90506002816002811115610bf057610bf0610f7c565b14610c33576004805463ffffffff60801b1916600160811b17905560405160008051602061117d83398151915290610c2a90600290610f92565b60405180910390a15b600354604051632c83c47160e11b81526001600160a01b039091169063590788e290610c659086908690600401611117565b600060405180830381600087803b158015610c7f57600080fd5b505af1158015610c93573d6000803e3d6000fd5b5050505050505050565b6004805463ffffffff60801b1916905560405160008051602061117d83398151915290610ccc90600090610f92565b60405180910390a16004805463ffffffff60601b1963ffffffff4216600160401b02166fffffffffffffffff0000000000000000199091161763ffffffff60601b178155600254604080516379fa798360e01b815290516000936001600160a01b03909316926379fa79839280820192602092909182900301818787803b158015610d5657600080fd5b505af1158015610d6a573d6000803e3d6000fd5b505050506040513d601f19601f82011682018060405250810190610d8e91906110fe565b9050600160009054906101000a90046001600160a01b03166001600160a01b03166383552b4d6040518163ffffffff1660e01b815260040160206040518083038186803b158015610dde57600080fd5b505afa158015610df2573d6000803e3d6000fd5b505050506040513d601f19601f82011682018060405250810190610e1691906110fe565b6040518281527f6e3d05bc77b9307d9ba574c7c3196a746edd51104ded1c823edc63be4b8a63c39060200160405180910390a2600154604051638252b1dd60e01b8152600481018390526001600160a01b0390911690638252b1dd90602401600060405180830381600087803b158015610e8f57600080fd5b505af1158015610ea3573d6000803e3d6000fd5b505060008054604080516379fa798360e01b815290516001600160a01b0390921694506379fa79839350600480820193929182900301818387803b158015610eea57600080fd5b505af1158015610efe573d6000803e3d6000fd5b5050505050565b60405180604001604052806002906020820280368337509192915050565b6001600160a01b0381168114610f3857600080fd5b50565b600080600060608486031215610f5057600080fd5b8335610f5b81610f23565b92506020840135610f6b81610f23565b929592945050506040919091013590565b634e487b7160e01b600052602160045260246000fd5b6020810160038310610fb457634e487b7160e01b600052602160045260246000fd5b91905290565b600060208284031215610fcc57600080fd5b5035919050565b6040805190810167ffffffffffffffff8111828210171561100457634e487b7160e01b600052604160045260246000fd5b60405290565b600080600060a0848603121561101f57600080fd5b83516003811061102e57600080fd5b92506020603f8501861361104157600080fd5b611049610fd3565b80606087018881111561105b57600080fd5b8388015b81811015611076578051845292840192840161105f565b5081955088607f89011261108957600080fd5b611091610fd3565b925082915060a08801898111156110a757600080fd5b808210156110c95781516110ba81610f23565b845292840192908401906110a7565b50508093505050509250925092565b600082198211156110f957634e487b7160e01b600052601160045260246000fd5b500190565b60006020828403121561111057600080fd5b5051919050565b60808101818460005b600281101561113f578151835260209283019290910190600101611120565b505050604082018360005b60028110156111725781516001600160a01b031683526020928301929091019060010161114a565b505050939250505056feed606d544c2202d032d2626c390923e6f260ca5d89625bba0cfe70d2bdda4e8fa264697066735822122098e7f91abf8af465969726f09e88b1a8a2c53c88c140c40da2f40c312e0db84c64736f6c6343000809003360c060405234801561001057600080fd5b5060405161081e38038061081e83398101604081905261002f9161009e565b60038110158015610041575060408111155b6100845760405162461bcd60e51b815260206004820152601060248201526f6c6f672073697a653a205b332c36345d60801b604482015260640160405180910390fd5b6001600160a01b039091166080526001901b60a0526100d8565b600080604083850312156100b157600080fd5b82516001600160a01b03811681146100c857600080fd5b6020939093015192949293505050565b60805160a05161070c61011260003960006101720152600081816101e8015281816102a5015281816103ed01526104ce015261070c6000f3fe608060405234801561001057600080fd5b50600436106100625760003560e01c80631ab6dcab1461006757806379fa79831461007d578063851867b314610087578063a459600e1461008f578063e7955244146100a2578063f32078e8146100aa575b600080fd5b6002545b60405190815260200160405180910390f35b6100856100bd565b005b6100856100e6565b61006b61009d366004610576565b6100f6565b61006b61014a565b61006b6100b836600461058f565b610164565b6100c56104c3565b600254156100da576100d8600080610544565b565b6100d860016000610544565b6100ee6104c3565b6100d861052a565b6000600254600014610125576000828154811061011557610115610601565b9060005260206000200154610144565b6001828154811061013857610138610601565b90600052602060002001545b92915050565b600060025460001461015d575060005490565b5060015490565b6000811580159061019557507f00000000000000000000000000000000000000000000000000000000000000008211155b6101e65760405162461bcd60e51b815260206004820152601860248201527f696e707574206c656e3a2028302c647269766553697a655d000000000000000060448201526064015b60405180910390fd5b7f00000000000000000000000000000000000000000000000000000000000000006001600160a01b031663eb71b0936040518163ffffffff1660e01b8152600401602060405180830381600087803b15801561024157600080fd5b505af1158015610255573d6000803e3d6000fd5b505050506040513d601f19601f820116820180604052508101906102799190610617565b156102865761028661052a565b600060025460001461029957600161029c565b60005b905060003343427f00000000000000000000000000000000000000000000000000000000000000006001600160a01b031663b97dd9e26040518163ffffffff1660e01b815260040160206040518083038186803b1580156102fc57600080fd5b505afa158015610310573d6000803e3d6000fd5b505050506040513d601f19601f820116820180604052508101906103349190610640565b8554604080516001600160a01b0390961660208701528501939093526060840191909152608083015260a082015260c0016040516020818303038152906040528051906020012090506000858560405161038f929190610659565b6040805191829003822060208301859052908201819052915060009060600160408051601f1981840301815291905280516020918201208554600181810188556000888152939093200181905585549092506103eb9190610669565b7f00000000000000000000000000000000000000000000000000000000000000006001600160a01b031663b97dd9e26040518163ffffffff1660e01b815260040160206040518083038186803b15801561044457600080fd5b505afa158015610458573d6000803e3d6000fd5b505050506040513d601f19601f8201168201806040525081019061047c9190610640565b7fa15a0da5519c084484141aaa73e525cee96062f5decc97e070f0c4da27738bc733428b8b6040516104b1949392919061068e565b60405180910390a39695505050505050565b336001600160a01b037f000000000000000000000000000000000000000000000000000000000000000016146100d85760405162461bcd60e51b815260206004820152600c60248201526b4f6e6c7920726f6c6c75707360a01b60448201526064016101dd565b60025415610539576000600255565b600160028190555b50565b508054600082559060005260206000209081019061054191905b80821115610572576000815560010161055e565b5090565b60006020828403121561058857600080fd5b5035919050565b600080602083850312156105a257600080fd5b823567ffffffffffffffff808211156105ba57600080fd5b818501915085601f8301126105ce57600080fd5b8135818111156105dd57600080fd5b8660208285010111156105ef57600080fd5b60209290920196919550909350505050565b634e487b7160e01b600052603260045260246000fd5b60006020828403121561062957600080fd5b8151801515811461063957600080fd5b9392505050565b60006020828403121561065257600080fd5b5051919050565b8183823760009101908152919050565b60008282101561068957634e487b7160e01b600052601160045260246000fd5b500390565b6001600160a01b0385168152602081018490526060604082018190528101829052818360808301376000818301608090810191909152601f909201601f19160101939250505056fea2646970667358221220b1aa0e1533cd8db484ac6d6e5b46ccefe63aab5485d4e4f2bbf4449ca1be829a64736f6c6343000809003360a060405234801561001057600080fd5b50604051610d0f380380610d0f83398101604081905261002f91610040565b6001600160a01b0316608052610070565b60006020828403121561005257600080fd5b81516001600160a01b038116811461006957600080fd5b9392505050565b608051610c8461008b60003960006104780152610c846000f3fe608060405234801561001057600080fd5b50600436106100a95760003560e01c80638021be81116100715780638021be811461013e5780638252b1dd1461014557806383552b4d1461015a578063a238203614610162578063a981588a1461013e578063f3af7efd1461016257600080fd5b806310517cfc146100ae5780633ad58a27146100d35780633c0d9958146100f65780635e439a0c146101185780636190d81e1461012b575b600080fd5b6100c06100bc366004610876565b1b90565b6040519081526020015b60405180910390f35b6100e66100e13660046108c7565b610169565b60405190151581526020016100ca565b6100c06101043660046109a6565b608083901b604083901b1781179392505050565b6100e66101263660046108c7565b610187565b6100e66101393660046109d2565b61019d565b60156100c0565b610158610153366004610a88565b61046d565b005b6001546100c0565b60256100c0565b600061017f84848460a001356025601587610508565b949350505050565b600061017f848484608001356025601587610508565b60025460009060ff16156101f15760405162461bcd60e51b81526020600482015260166024820152751c99595b9d1c985b98de481b9bdd08185b1b1bddd95960521b60448201526064015b60405180910390fd5b6002805460ff1916600117905560405160009061021690879087908790602001610aa1565b604051602081830303815290604052905061025381600185600001358154811061024257610242610ae1565b906000526020600020015485610187565b5060006020840135604090811b9085013560801b178435176040516303fbaf7360e01b81526000600482015260248101829052909150736Fc1eACde8ec4898711Ec3b03bbCc666361A136A906303fbaf739060440160206040518083038186803b1580156102c057600080fd5b505af41580156102d4573d6000803e3d6000fd5b505050506040513d601f19601f820116820180604052508101906102f89190610af7565b156103455760405162461bcd60e51b815260206004820152601860248201527f72652d657865637574696f6e206e6f7420616c6c6f776564000000000000000060448201526064016101e8565b6000876001600160a01b03168787604051610361929190610b20565b6000604051808303816000865af19150503d806000811461039e576040519150601f19603f3d011682016040523d82523d6000602084013e6103a3565b606091505b505090508015610458576040516306449da160e41b8152600060048201526024810183905260016044820152736Fc1eACde8ec4898711Ec3b03bbCc666361A136A90636449da109060640160006040518083038186803b15801561040657600080fd5b505af415801561041a573d6000803e3d6000fd5b505050507f0eb7ee080f865f1cadc4f54daf58cc3b8879e888832867d13351edcec0fbdc548260405161044f91815260200190565b60405180910390a15b6002805460ff19169055979650505050505050565b336001600160a01b037f000000000000000000000000000000000000000000000000000000000000000016146104d45760405162461bcd60e51b815260206004820152600c60248201526b4f6e6c7920726f6c6c75707360a01b60448201526064016101e8565b6001805480820182556000919091527fb10e2d527612073b26eecdfd717e6a320cf44b4afac2b0732d9fcbe2b7fa0cf60155565b60408051608080840135602083015260a08401359282019290925260c08301356060820152600091879101604051602081830303815290604052805190602001201461058c5760405162461bcd60e51b8152602060048201526013602482015272195c1bd8da12185cda081a5b98dbdc9c9958dd606a1b60448201526064016101e8565b8473DA9aafbDcda3a5DDFE0D1372ebd6201efE7F23246379de4601602085013560051b60058887606001356040516020016105c991815260200190565b60408051601f1981840301815291905280516020909101206105ef6101008a018a610b30565b6040518763ffffffff1660e01b815260040161061096959493929190610b81565b60206040518083038186803b15801561062857600080fd5b505af415801561063c573d6000803e3d6000fd5b505050506040513d601f19601f820116820180604052508101906106609190610bd8565b146106ad5760405162461bcd60e51b815260206004820152601e60248201527f65706f63684f757470757444726976654861736820696e636f7272656374000060448201526064016101e8565b600073DA9aafbDcda3a5DDFE0D1372ebd6201efE7F232463c84583a189805190602001206040516020016106e391815260200190565b60405160208183030381529060405260056040518363ffffffff1660e01b8152600401610711929190610bf1565b60206040518083038186803b15801561072957600080fd5b505af415801561073d573d6000803e3d6000fd5b505050506040513d601f19601f820116820180604052508101906107619190610bd8565b9050606083013573DA9aafbDcda3a5DDFE0D1372ebd6201efE7F23246379de4601604086013560051b6005888661079b60e08b018b610b30565b6040518763ffffffff1660e01b81526004016107bc96959493929190610b81565b60206040518083038186803b1580156107d457600080fd5b505af41580156107e8573d6000803e3d6000fd5b505050506040513d601f19601f8201168201806040525081019061080c9190610bd8565b146108685760405162461bcd60e51b815260206004820152602660248201527f6f75747075744d65746164617461417272617944726976654861736820696e636044820152651bdc9c9958dd60d21b60648201526084016101e8565b506001979650505050505050565b6000806040838503121561088957600080fd5b50508035926020909101359150565b634e487b7160e01b600052604160045260246000fd5b600061012082840312156108c157600080fd5b50919050565b6000806000606084860312156108dc57600080fd5b833567ffffffffffffffff808211156108f457600080fd5b818601915086601f83011261090857600080fd5b81358181111561091a5761091a610898565b604051601f8201601f19908116603f0116810190838211818310171561094257610942610898565b8160405282815289602084870101111561095b57600080fd5b8260208601602083013760006020848301015280975050505060208601359350604086013591508082111561098f57600080fd5b5061099c868287016108ae565b9150509250925092565b6000806000606084860312156109bb57600080fd5b505081359360208301359350604090920135919050565b600080600080606085870312156109e857600080fd5b84356001600160a01b03811681146109ff57600080fd5b9350602085013567ffffffffffffffff80821115610a1c57600080fd5b818701915087601f830112610a3057600080fd5b813581811115610a3f57600080fd5b886020828501011115610a5157600080fd5b602083019550809450506040870135915080821115610a6f57600080fd5b50610a7c878288016108ae565b91505092959194509250565b600060208284031215610a9a57600080fd5b5035919050565b6001600160a01b03841681526040602082018190528101829052818360608301376000818301606090810191909152601f909201601f1916010192915050565b634e487b7160e01b600052603260045260246000fd5b600060208284031215610b0957600080fd5b81518015158114610b1957600080fd5b9392505050565b8183823760009101908152919050565b6000808335601e19843603018112610b4757600080fd5b83018035915067ffffffffffffffff821115610b6257600080fd5b6020019150600581901b3603821315610b7a57600080fd5b9250929050565b86815285602082015284604082015283606082015260a060808201528160a0820152600060018060fb1b03831115610bb857600080fd5b8260051b808560c08501376000920160c001918252509695505050505050565b600060208284031215610bea57600080fd5b5051919050565b604081526000835180604084015260005b81811015610c1f5760208187018101516060868401015201610c02565b81811115610c31576000606083860101525b50602083019390935250601f91909101601f19160160600191905056fea26469706673582212207e7041ea77f3f912f78f0a06a2d971a7e3210272aff13d326deaf6d2d1fbb99564736f6c6343000809003360a06040523480156200001157600080fd5b5060405162000c7f38038062000c7f833981016040819052620000349162000169565b6001600160a01b038216608052805162000056906001906020840190620000a7565b506200006162000089565b600260046101000a81548163ffffffff021916908363ffffffff16021790555050506200027a565b600180546000918291620000a1919081901b62000254565b92915050565b828054828255906000526020600020908101928215620000ff579160200282015b82811115620000ff57825182546001600160a01b0319166001600160a01b03909116178255602090920191600190910190620000c8565b506200010d92915062000111565b5090565b5b808211156200010d576000815560010162000112565b6001600160a01b03811681146200013e57600080fd5b50565b634e487b7160e01b600052604160045260246000fd5b8051620001648162000128565b919050565b600080604083850312156200017d57600080fd5b82516200018a8162000128565b602084810151919350906001600160401b0380821115620001aa57600080fd5b818601915086601f830112620001bf57600080fd5b815181811115620001d457620001d462000141565b8060051b604051601f19603f83011681018181108582111715620001fc57620001fc62000141565b6040529182528482019250838101850191898311156200021b57600080fd5b938501935b828510156200024457620002348562000157565b8452938501939285019262000220565b8096505050505050509250929050565b6000828210156200027557634e487b7160e01b600052601160045260246000fd5b500390565b6080516109e96200029660003960006104f601526109e96000f3fe608060405234801561001057600080fd5b50600436106100625760003560e01c8063012ad61c1461006757806335f70e4c1461008b57806379fa7983146100ad5780638219fda4146100c3578063f6023815146100cb578063fabc6a29146100e1575b600080fd5b60025463ffffffff165b60405163ffffffff90911681526020015b60405180910390f35b61009e610099366004610886565b6100f4565b604051610082939291906108c2565b6100b56102ce565b604051908152602001610082565b6000546100b5565b600254640100000000900463ffffffff16610071565b61009e6100ef36600461094a565b610324565b60006100fe61084c565b61010661084c565b61010e6104eb565b61011785610554565b6000548414156101b757600254640100000000810463ffffffff90811691161461017257604080518082018252600080825260208083018290528351808501909452818452830181905261016d9290919061062f565b6101ac565b6040805180820182528581526000602080830182905283518085019094526001600160a01b038a1684528301526101ac916001919061062f565b9250925092506102c5565b60025463ffffffff161561020e576101ac6002604051806040016040528060005481526020018781525060405180604001604052806101f4610688565b6001600160a01b0390811682528b1660209091015261062f565b600084905561021c86610732565b6002805463ffffffff191663ffffffff928316908117918290556102499290916401000000009004161490565b61028457604080518082018252600080825260208083018290528351808501909452818452830181905261027f9290919061062f565b6102be565b6040805180820182528581526000602080830182905283518085019094526001600160a01b038a1684528301526102be916001919061062f565b9250925092505b93509350939050565b60006102d86104eb565b600080549080556002805463ffffffff191690556040518181527fddc860800a99149017c480ec51523bf4143b7215e78956ae5c31e5c568f5383a9060200160405180910390a1919050565b600061032e61084c565b61033661084c565b61033e6104eb565b8361037e5760405162461bcd60e51b815260206004820152600b60248201526a656d70747920636c61696d60a81b60448201526064015b60405180910390fd5b610387856107a3565b6103c85760405162461bcd60e51b81526020600482015260126024820152711cd95b99195c881b9bdd08185b1b1bddd95960721b6044820152606401610375565b6000546103d55760008490555b60005484146104325761042760026040518060400160405280600054815260200187815250604051806040016040528061040d610688565b6001600160a01b0390811682528a16602090910152610807565b9250925092506104e4565b61043b85610732565b6002805463ffffffff191663ffffffff928316908117918290556104689290916401000000009004161490565b6104a357604080518082018252600080825260208083018290528351808501909452818452830181905261049e92909190610807565b6104dd565b6040805180820182528581526000602080830182905283518085019094526001600160a01b03891684528301526104dd9160019190610807565b9250925092505b9250925092565b336001600160a01b037f000000000000000000000000000000000000000000000000000000000000000016146105525760405162461bcd60e51b815260206004820152600c60248201526b4f6e6c7920726f6c6c75707360a01b6044820152606401610375565b565b60005b60015481101561062b576001818154811061057457610574610974565b6000918252602090912001546001600160a01b0383811691161415610619576000600182815481106105a8576105a8610974565b600091825260209091200180546001600160a01b03929092166001600160a01b03199092169190911790556002805464010000000063ffffffff198216600163ffffffff8087169190911b198481168216928317849004161690910267ffffffffffffffff19909216171790555050565b806106238161098a565b915050610557565b5050565b600061063961084c565b61064161084c565b7f09201c193a07cae1df95ae692cc698685574c942a04514c48a4c3249f38594ff868686604051610674939291906108c2565b60405180910390a150939492935090919050565b6000805b6001548110156106e9576002546001821b1663ffffffff16156106d757600181815481106106bc576106bc610974565b6000918252602090912001546001600160a01b031692915050565b806106e18161098a565b91505061068c565b5060405162461bcd60e51b815260206004820152601c60248201527f4167726565696e672076616c696461746f72206e6f7420666f756e64000000006044820152606401610375565b60025460009063ffffffff16815b60015481101561079c576001818154811061075d5761075d610974565b6000918252602090912001546001600160a01b038581169116141561078a57806001901b8217915061079c565b806107948161098a565b915050610740565b5092915050565b6000805b6001548110156107fe57600181815481106107c4576107c4610974565b6000918252602090912001546001600160a01b03848116911614156107ec5750600192915050565b806107f68161098a565b9150506107a7565b50600092915050565b600061081161084c565b61081961084c565b7f495383aed97965c56495cdbadedfe9667a1b028c54d3fc4b5335895146e02b70868686604051610674939291906108c2565b60405180604001604052806002906020820280368337509192915050565b80356001600160a01b038116811461088157600080fd5b919050565b60008060006060848603121561089b57600080fd5b6108a48461086a565b92506108b26020850161086a565b9150604084013590509250925092565b60a08101600385106108e457634e487b7160e01b600052602160045260246000fd5b84825260208083018560005b600281101561090d578151835291830191908301906001016108f0565b505050606083018460005b600281101561093e5781516001600160a01b031683529183019190830190600101610918565b50505050949350505050565b6000806040838503121561095d57600080fd5b6109668361086a565b946020939093013593505050565b634e487b7160e01b600052603260045260246000fd5b60006000198214156109ac57634e487b7160e01b600052601160045260246000fd5b506001019056fea2646970667358221220307d873058c34130048a9909f469a9bc90b3eed5d8037ef76f5dab36284f5eb064736f6c6343000809003360a060405234801561001057600080fd5b5060405161032838038061032883398101604081905261002f91610040565b6001600160a01b0316608052610070565b60006020828403121561005257600080fd5b81516001600160a01b038116811461006957600080fd5b9392505050565b608051610297610091600039600081816050015261010201526102976000f3fe608060405234801561001057600080fd5b506004361061002b5760003560e01c8063590788e214610030575b600080fd5b61004361003e36600461019b565b610045565b005b336001600160a01b037f000000000000000000000000000000000000000000000000000000000000000016146100cd5760405162461bcd60e51b8152602060048201526024808201527f4f6e6c7920726f6c6c7570732063616e2063616c6c20746869732066756e6374604482015263696f6e7360e01b606482015260840160405180910390fd5b805160208201518351604051632767ec6b60e11b81526001600160a01b039384166004820152918316602483015260448201527f000000000000000000000000000000000000000000000000000000000000000090911690634ecfd8d690606401600060405180830381600087803b15801561014857600080fd5b505af115801561015c573d6000803e3d6000fd5b505050505050565b6040805190810167ffffffffffffffff8111828210171561019557634e487b7160e01b600052604160045260246000fd5b60405290565b600080608083850312156101ae57600080fd5b83601f8401126101bd57600080fd5b6101c5610164565b8060408501868111156101d757600080fd5b855b818110156101f15780358452602093840193016101d9565b5081945086605f87011261020457600080fd5b61020c610164565b9250829150608086018781111561022257600080fd5b808210156102545781356001600160a01b03811681146102425760008081fd5b84526020938401939190910190610222565b509396909550935050505056fea26469706673582212200a0bc85bbb603e01e12e026e73b6a114fe768b0bb0d7f9de9837eb39ee08c2c664736f6c63430008090033",
  "libraries": {
    "Bitmask": "0x6Fc1eACde8ec4898711Ec3b03bbCc666361A136A",
    "Merkle": "0xDA9aafbDcda3a5DDFE0D1372ebd6201efE7F2324"
  },
  "devdoc": {
    "kind": "dev",
    "methods": {
      "constructor": {
        "params": {
          "_challengePeriod": "duration of challenge period in seconds",
          "_inputDuration": "duration of input accumulation phase in seconds",
          "_inputLog2Size": "size of the input drive in this machine",
          "_validators": "initial validator set"
        }
      },
      "finalizeEpoch()": {
        "details": "can only be called if challenge period is over"
      },
      "getCurrentEpoch()": {
        "details": "if phase is input accumulation, then the epoch number is length",
        "returns": {
          "_0": "index of current epoch"
        }
      },
      "notifyInput()": {
        "details": "can only be called by input contract"
      },
      "resolveDispute(address,address,bytes32)": {
        "details": "can only be called by the dispute contract",
        "params": {
          "_loser": "loser of dispute",
          "_winner": "winner of dispute",
          "_winningClaim": "initial claim of winning validator"
        }
      }
    },
    "version": 1
  },
  "userdoc": {
    "events": {
      "Claim(uint256,address,bytes32)": {
        "notice": "claim submitted"
      },
      "FinalizeEpoch(uint256,bytes32)": {
        "notice": "epoch finalized"
      },
      "PhaseChange(uint8)": {
        "notice": "phase change"
      },
      "ResolveDispute(address,address,bytes32)": {
        "notice": "dispute resolved"
      },
      "RollupsCreated(address,address,address,address,uint256,uint256)": {
        "notice": "contract created"
      }
    },
    "kind": "user",
    "methods": {
      "claim(bytes32)": {
        "notice": "TODO: add signatures for aggregated claims"
      },
      "constructor": {
        "notice": "creates contract"
      },
      "finalizeEpoch()": {
        "notice": "finalize epoch after timeout"
      },
      "getCurrentEpoch()": {
        "notice": "returns index of current (accumulating) epoch"
      },
      "getCurrentPhase()": {
        "notice": "returns the current phase"
      },
      "getDisputeManagerAddress()": {
        "notice": "returns address of dispute manager contract"
      },
      "getInputAccumulationStart()": {
        "notice": "returns the input accumulation start timestamp"
      },
      "getInputAddress()": {
        "notice": "returns address of input contract"
      },
      "getOutputAddress()": {
        "notice": "returns address of output contract"
      },
      "getValidatorManagerAddress()": {
        "notice": "returns address of validator manager contract"
      },
      "notifyInput()": {
        "notice": "called when new input arrives, manages the phase changes"
      },
      "resolveDispute(address,address,bytes32)": {
        "notice": "called when a dispute is resolved by the dispute manager"
      }
    },
    "version": 1
  },
  "storageLayout": {
    "storage": [
      {
        "astId": 3838,
        "contract": "contracts/RollupsImpl.sol:RollupsImpl",
        "label": "input",
        "offset": 0,
        "slot": "0",
        "type": "t_contract(InputImpl)3221"
      },
      {
        "astId": 3841,
        "contract": "contracts/RollupsImpl.sol:RollupsImpl",
        "label": "output",
        "offset": 0,
        "slot": "1",
        "type": "t_contract(OutputImpl)3714"
      },
      {
        "astId": 3844,
        "contract": "contracts/RollupsImpl.sol:RollupsImpl",
        "label": "validatorManager",
        "offset": 0,
        "slot": "2",
        "type": "t_contract(ValidatorManagerImpl)6421"
      },
      {
        "astId": 3847,
        "contract": "contracts/RollupsImpl.sol:RollupsImpl",
        "label": "disputeManager",
        "offset": 0,
        "slot": "3",
        "type": "t_contract(DisputeManagerImpl)2227"
      },
      {
        "astId": 3861,
        "contract": "contracts/RollupsImpl.sol:RollupsImpl",
        "label": "storageVar",
        "offset": 0,
        "slot": "4",
        "type": "t_struct(StorageVar)3858_storage"
      }
    ],
    "types": {
      "t_contract(DisputeManagerImpl)2227": {
        "encoding": "inplace",
        "label": "contract DisputeManagerImpl",
        "numberOfBytes": "20"
      },
      "t_contract(InputImpl)3221": {
        "encoding": "inplace",
        "label": "contract InputImpl",
        "numberOfBytes": "20"
      },
      "t_contract(OutputImpl)3714": {
        "encoding": "inplace",
        "label": "contract OutputImpl",
        "numberOfBytes": "20"
      },
      "t_contract(ValidatorManagerImpl)6421": {
        "encoding": "inplace",
        "label": "contract ValidatorManagerImpl",
        "numberOfBytes": "20"
      },
      "t_struct(StorageVar)3858_storage": {
        "encoding": "inplace",
        "label": "struct RollupsImpl.StorageVar",
        "members": [
          {
            "astId": 3849,
            "contract": "contracts/RollupsImpl.sol:RollupsImpl",
            "label": "inputDuration",
            "offset": 0,
            "slot": "0",
            "type": "t_uint32"
          },
          {
            "astId": 3851,
            "contract": "contracts/RollupsImpl.sol:RollupsImpl",
            "label": "challengePeriod",
            "offset": 4,
            "slot": "0",
            "type": "t_uint32"
          },
          {
            "astId": 3853,
            "contract": "contracts/RollupsImpl.sol:RollupsImpl",
            "label": "inputAccumulationStart",
            "offset": 8,
            "slot": "0",
            "type": "t_uint32"
          },
          {
            "astId": 3855,
            "contract": "contracts/RollupsImpl.sol:RollupsImpl",
            "label": "sealingEpochTimestamp",
            "offset": 12,
            "slot": "0",
            "type": "t_uint32"
          },
          {
            "astId": 3857,
            "contract": "contracts/RollupsImpl.sol:RollupsImpl",
            "label": "currentPhase_int",
            "offset": 16,
            "slot": "0",
            "type": "t_uint32"
          }
        ],
        "numberOfBytes": "32"
      },
      "t_uint32": {
        "encoding": "inplace",
        "label": "uint32",
        "numberOfBytes": "4"
      }
    }
  }
}