{
  "address": "0x0AD6e715a9b703f7200a619c64e7Ef2373f2dF3C",
  "abi": [
    {
      "inputs": [
        {
          "internalType": "address",
          "name": "_inputContract",
          "type": "address"
        },
        {
          "internalType": "address",
          "name": "_outputContract",
          "type": "address"
        }
      ],
      "stateMutability": "nonpayable",
      "type": "constructor"
    },
    {
      "anonymous": false,
      "inputs": [
        {
          "indexed": false,
          "internalType": "address",
          "name": "_sender",
          "type": "address"
        },
        {
          "indexed": false,
          "internalType": "uint256",
          "name": "_amount",
          "type": "uint256"
        },
        {
          "indexed": false,
          "internalType": "bytes",
          "name": "_data",
          "type": "bytes"
        }
      ],
      "name": "EtherDeposited",
      "type": "event"
    },
    {
      "anonymous": false,
      "inputs": [
        {
          "indexed": false,
          "internalType": "address payable",
          "name": "_receiver",
          "type": "address"
        },
        {
          "indexed": false,
          "internalType": "uint256",
          "name": "_amount",
          "type": "uint256"
        }
      ],
      "name": "EtherWithdrawn",
      "type": "event"
    },
    {
      "inputs": [
        {
          "internalType": "bytes",
          "name": "_data",
          "type": "bytes"
        }
      ],
      "name": "etherDeposit",
      "outputs": [
        {
          "internalType": "bytes32",
          "name": "",
          "type": "bytes32"
        }
      ],
      "stateMutability": "payable",
      "type": "function"
    },
    {
      "inputs": [
        {
          "internalType": "bytes",
          "name": "_data",
          "type": "bytes"
        }
      ],
      "name": "executeRollupsVoucher",
      "outputs": [
        {
          "internalType": "bool",
          "name": "",
          "type": "bool"
        }
      ],
      "stateMutability": "nonpayable",
      "type": "function"
    }
  ],
  "transactionHash": "0xfe8ecf5f59911471913541497a0b14ee3503f876c5eacc16ba5c8bbb58c33cb5",
  "args": [
    "0xE5f6B7f127F4Aa0992219957A32ae986f97ac954",
    "0x2C20337B8ce8Bd8E3bcbE9356870eAdD27175373"
  ],
  "numDeployments": 1,
  "bytecode": "0x60c060405234801561001057600080fd5b5060405161054d38038061054d83398101604081905261002f91610062565b6001600160a01b0391821660a05216608052610095565b80516001600160a01b038116811461005d57600080fd5b919050565b6000806040838503121561007557600080fd5b61007e83610046565b915061008c60208401610046565b90509250929050565b60805160a0516104936100ba60003960006101030152600061019f01526104936000f3fe6080604052600436106100295760003560e01c80632abfe7b31461002e5780635a78177d14610054575b600080fd5b61004161003c3660046102fd565b610084565b6040519081526020015b60405180910390f35b34801561006057600080fd5b5061007461006f3660046102fd565b610192565b604051901515815260200161004b565b6000803334858560405160200161009e949392919061036f565b60405160208183030381529060405290507fa9888e32d8ea552aaeb3018b9c85c77c66ecc61cf8d1989f9e3271a88205ee63333486866040516100e4949392919061036f565b60405180910390a1604051631e640f1d60e31b81526001600160a01b037f0000000000000000000000000000000000000000000000000000000000000000169063f32078e8906101389084906004016103b7565b602060405180830381600087803b15801561015257600080fd5b505af1158015610166573d6000803e3d6000fd5b505050506040513d601f19601f8201168201806040525081019061018a919061040c565b949350505050565b6000336001600160a01b037f000000000000000000000000000000000000000000000000000000000000000016146102075760405162461bcd60e51b81526020600482015260136024820152721bdb9b1e481bdd5d1c1d5d10dbdb9d1c9858dd606a1b60448201526064015b60405180910390fd5b60008061021684860186610425565b915091506000826001600160a01b03168260405160006040518083038185875af1925050503d8060008114610267576040519150601f19603f3d011682016040523d82523d6000602084013e61026c565b606091505b50509050806102af5760405162461bcd60e51b815260206004820152600f60248201526e1d1c985b9cd9995c8819985a5b1959608a1b60448201526064016101fe565b604080516001600160a01b0385168152602081018490527f06097061aeda806b5e9cb4133d9899f332ff0913956567fc0f7ea15e3d19947c910160405180910390a150600195945050505050565b6000806020838503121561031057600080fd5b823567ffffffffffffffff8082111561032857600080fd5b818501915085601f83011261033c57600080fd5b81358181111561034b57600080fd5b86602082850101111561035d57600080fd5b60209290920196919550909350505050565b6001600160a01b0385168152602081018490526060604082018190528101829052818360808301376000818301608090810191909152601f909201601f191601019392505050565b600060208083528351808285015260005b818110156103e4578581018301518582016040015282016103c8565b818111156103f6576000604083870101525b50601f01601f1916929092016040019392505050565b60006020828403121561041e57600080fd5b5051919050565b6000806040838503121561043857600080fd5b82356001600160a01b038116811461044f57600080fd5b94602093909301359350505056fea26469706673582212208cd09acda56bf90d54c63632ce9c262e75eacb8e6655550965968d141c0b60de64736f6c63430008090033",
  "devdoc": {
    "kind": "dev",
    "methods": {
      "etherDeposit(bytes)": {
        "params": {
          "_data": "information to be interpreted by L2"
        },
        "returns": {
          "_0": "hash of input generated by deposit"
        }
      },
      "executeRollupsVoucher(bytes)": {
        "details": "can only be called by the Output contract",
        "params": {
          "_data": "data with information necessary to execute voucher"
        }
      }
    },
    "version": 1
  },
  "userdoc": {
    "kind": "user",
    "methods": {
      "etherDeposit(bytes)": {
        "notice": "deposit an amount of Ether in the portal contract and create Ether in L2"
      },
      "executeRollupsVoucher(bytes)": {
        "notice": "executes a rollups voucher"
      }
    },
    "version": 1
  },
  "storageLayout": {
    "storage": [],
    "types": null
  }
}